:020000040800F2
:1000000000000824791C00083D1B00083F1B000865
:10001000411B0008431B0008451B000800000000AE
:1000200000000000000000000000000021E90008BE
:10003000471B000800000000B1E900084DE100087E
:10004000C91C0008C91C0008C91C0008C91C0008FC
:10005000C91C0008C91C0008C91C0008C91C0008EC
:10006000C91C0008C91C0008C91C0008C91C0008DC
:10007000C91C0008C91C0008C91C0008C91C0008CC
:10008000C91C0008C91C0008491B0008C91C00083D
:10009000C91C0008C91C0008C91C0008C91C0008AC
:1000A000C91C0008C91C0008C91C0008C91C00089C
:1000B000C91C0008C91C0008651B0008C91C0008F1
:1000C000C91C0008C91C0008C91C0008C91C00087C
:1000D000C91C0008C91C0008C91C0008C91C00086C
:1000E000C91C0008C91C000800000000C91C000849
:1000F000C91C0008C91C0008C91C0008C91C00084C
:10010000C91C0008C91C0008C91C0008C91C00083B
:10011000C91C0008C91C0008711B0008C91C000884
:10012000C91C0008C91C0008C91C0008C91C00081B
:10013000C91C0008C91C0008C91C0008C91C00080B
:10014000C91C0008C91C00080000000000000000D5
:10015000C91C0008C91C0008C91C0008C91C0008EB
:10016000C91C0008C91C0008C91C0008C91C0008DB
:10017000C91C0008C91C0008C91C000800000000B8
:10018000C91C0008C91C0008C91C0008C91C0008BB
:10019000C91C0008C91C0008C91C0008C91C0008AB
:1001A0007D1B0008C91C0008891B0008C91C000829
:1001B000C91C0008C91C0008C91C0008C91C00088B
:1001C000C91C0008C91C0008C91C0008C91C00087B
:1001D000C91C0008C91C0008C91C0008C91C00086B
:1001E000C91C0008C91C0008C91C0008C91C00085B
:1001F000C91C0008C91C0008C91C0008C91C00084B
:10020000C91C0008C91C0008C91C0008C91C00083A
:10021000C91C0008C91C0008C91C0008C91C00082A
:10022000C91C0008951B0008A11B0008BD1B000885
:10023000C91C0008C91C0008C91C0008C91C00080A
:10024000C91C0008C91C0008C91C0008C91C0008FA
:10025000C91C0008C91C0008C91C0008C91C0008EA
:10026000C91C0008C91C0008C91C0008C91C0008DA
:10027000C91C0008C91C0008C91C0008C91C0008CA
:10028000C91C0008C91C0008C91C000800000000A7
:08029000C91C0008C91C00088C
:1002A00010B5054C237833B9044B13B10448AFF3B0
:1002B00000800123237010BD4003002400000000D3
:1002C0008463020808B5034B1BB103490348AFF32D
:1002D000008008BD0000000044030024846302087D
:1002E00001F0FF01102A2BDB10F0070F08D010F8E7
:1002F000013B013A8B422DD010F0070F42B3F6D1EB
:10030000F0B441EA012141EA014122F007047FF003
:1003100000070023F0E80256083C85EA010586EA5A
:10032000010685FA47F5A3FA87F586FA47F6A5FA96
:1003300087F68EB9EED1F0BC01F0FF0102F00702A2
:1003400032B110F8013B013A83EA010313B1F8D14D
:100350000020704701387047002D06BF354603382E
:10036000073815F0010F07D1013015F4807F02BF67
:10037000013015F4C03F0130F0BC0138704700BFB8
:1003800081F0004102E000BF83F0004330B54FEA46
:1003900041044FEA430594EA050F08BF90EA020FB3
:1003A0001FBF54EA000C55EA020C7FEA645C7FEA46
:1003B000655C00F0E2804FEA5454D4EB5555B8BF69
:1003C0006D420CDD2C4480EA020281EA030382EADA
:1003D000000083EA010180EA020281EA0303362D6C
:1003E00088BF30BD11F0004F4FEA01314FF4801C3F
:1003F0004CEA113102D0404261EB410113F0004F51
:100400004FEA03334CEA133302D0524263EB430307
:1004100094EA050F00F0A780A4F10104D5F1200EA5
:100420000DDB02FA0EFC22FA05F2801841F1000100
:1004300003FA0EF2801843FA05F359410EE0A5F1D4
:1004400020050EF1200E012A03FA0EFC28BF4CF005
:10045000020C43FA05F3C01851EBE37101F00045BB
:1004600007D54FF0000EDCF1000C7EEB00006EEBC8
:100470000101B1F5801F1BD3B1F5001F0CD3490852
:100480005FEA30004FEA3C0C04F101044FEA4452A9
:1004900012F5800F80F09A80BCF1004F08BF5FEA30
:1004A000500C50F1000041EB045141EA050130BD10
:1004B0005FEA4C0C404141EB0101013C28BFB1F522
:1004C000801FE9D291F0000F04BF01460020B1FA6D
:1004D00081F308BF2033A3F10B03B3F120020CDA40
:1004E0000C3208DD02F1140CC2F10C0201FA0CF01E
:1004F00021FA02F10CE002F11402D8BFC2F1200C83
:1005000001FA02F120FA0CFCDCBF41EA0C01904038
:10051000E41AA2BF01EB0451294330BD6FEA040481
:100520001F3C1CDA0C340EDC04F11404C4F120026C
:1005300020FA04F001FA02F340EA030021FA04F37E
:1005400045EA030130BDC4F10C04C4F1200220FAD5
:1005500002F001FA04F340EA0300294630BD21FA13
:1005600004F0294630BD94F0000F83F4801306BFD9
:1005700081F480110134013D4EE77FEA645C18BFCD
:100580007FEA655C29D094EA050F08BF90EA020F64
:1005900005D054EA000C04BF1946104630BD91EA5C
:1005A000030F1EBF0021002030BD5FEA545C05D15F
:1005B0004000494128BF41F0004130BD14F580049E
:1005C0003CBF01F5801130BD01F0004545F0FE4112
:1005D00041F470014FF0000030BD7FEA645C1ABF47
:1005E000194610467FEA655C1CBF0B46024650EA7E
:1005F000013406BF52EA033591EA030F41F40021AA
:1006000030BD00BF90F0000F04BF0021704730B52F
:100610004FF4806404F132044FF000054FF0000104
:1006200050E700BF90F0000F04BF0021704730B5C5
:100630004FF4806404F1320410F0004548BF40429A
:100640004FF000013EE700BF42004FEAE2014FEAEF
:1006500031014FEA02701FBF12F07F4393F07F4FCA
:1006600081F06051704732F07F4208BF704793F0CD
:100670007F4F04BF41F40021704730B54FF46074E0
:1006800001F0004521F000411CE700BF50EA0102E3
:1006900008BF704730B54FF000050AE050EA01028C
:1006A00008BF704730B511F0004502D5404261EBFC
:1006B00041014FF4806404F132045FEA915C3FF43D
:1006C000D8AE4FF003025FEADC0C18BF03325FEADA
:1006D000DC0C18BF033202EBDC02C2F1200300FA8B
:1006E00003FC20FA02F001FA03FE40EA0E0021FAB0
:1006F00002F11444BDE600BF014900200FF0CCBA5E
:10070000752500082DE9F0470026DFF8F080364F08
:100710000DF056FD4FF400510546404609F0C8F86B
:100720000128324C3ED14021314809F0C1F808215E
:1007300082462F4809F0BCF8042181462C4809F074
:10074000B7F80346BAF1000F0FD12A490A68AA1A6E
:10075000962A0AD92278052A06D8DFE802F016037D
:10076000181A1C1E8BB923700D602278B9F1000F86
:1007700018D13B68EB1A962B14D9062A11D8DFE85A
:1007800002F03010302E2C2A0E000223EBE7032358
:10079000E9E70423E7E70523E5E70623E3E7052385
:1007A00023703D60DFF85890227899F800309A4223
:1007B00002D1AB1B642B0AD900230F480B492E46EC
:1007C0001A4600680DF0A7FE237889F8003005204E
:1007D0000DF044FD9CE70423E2E70323E0E7022356
:1007E000DEE70123DCE700BF5C0300246003002494
:1007F00000280258640300249803002400080258CB
:100800000400002470B59CB04C22002109A825F0FA
:1008100023F82022002101A825F01EF804200AF068
:10082000D1FE00230093254BDA6A22F00102DA623E
:10083000DB6A03F001030093214B9A6942F44042C2
:100840009A619A6902F440420092009A9A6992046D
:10085000FCD54FF48033032601250C22402409A83F
:10086000CDE909630223CDE912331493CDE91523B1
:10087000CDE91753CDE919230023CDE90C541B937F
:100880000BF0A0F908B172B6FEE73F232946CDE987
:1008900001364FF48063CDE9030001A8CDE905449A
:1008A000CDE907340BF02AFD014608B172B6FEE728
:1008B0004FF480220BF032FC1CB070BD00040058D5
:1008C0000048025800B5B3B0A422002109A824F0C2
:1008D000C3FF4FF4002200236846CDE90023022322
:1008E0000C22CDE90433CDE902320693C022202345
:1008F000CDE907230BF088FF08B172B6FEE733B0ED
:100900005DF804FB2DE9F04FBA4ABDB004210A207E
:100910000DF0C6FDB84B1022002118602FA824F05E
:100920009BFF012408F03CF84FF0104CB34B2FA86C
:10093000ADF8BC4004253294CDE930C308F04EF840
:100940001A232FA88DF8BD408DF8C43008F046F862
:1009500002232FA88DF8CA408DF8BD304FF05043C8
:10096000309318238DF8C43008F038F803232FA8EB
:100970008DF8BD304FF01053309312238DF8C430F2
:1009800000238DF8C83008F029F84FF080532FA8C5
:100990008DF8BD50309311238DF8C43008F01EF847
:1009A00005232FA88DF8C8408DF8BD30944B3093A7
:1009B0000E238DF8C43008F011F8284607F0FEFF2A
:1009C000904B5A6912F4003211D1BFF34F8FBFF32D
:1009D0006F8FC3F85022BFF34F8FBFF36F8F5A69E9
:1009E00042F400325A61BFF34F8FBFF36F8F854AD5
:1009F000536913F4803323D1C2F88430BFF34F8F8F
:100A0000D2F8803043F6E074C3F3C900C3F34E3329
:100A10005B0103EA0406014646EA81750139C2F822
:100A20006052F9D2203B13F1200FF2D1BFF34F8F68
:100A3000536943F480335361BFF34F8FBFF36F8F1C
:100A40004FF6FF73704D2C6814F4004400F00084DE
:100A5000013BF8D272B6FEE772B6FEE76B486C4A0D
:100A600083610462C0E90027C0E90253C0E904536E
:100A70000AF0C8FE08B172B6FEE740F203132FA9D0
:100A80008DF8BE40ADF8BC3006F0DEFA08B172B6A3
:100A9000FEE706F085FA034608B172B6FEE75D4848
:100AA0004FF440325C4EC0E90253C0E9006208F0E6
:100AB00022F8044608B172B6FEE70246414657489E
:100AC00008F0FCFE142006F063FF2A464146534816
:100AD00008F0F4FE0A2006F05BFF2422214619A844
:100AE00024F0BAFE1822214613A824F0B5FE3422C1
:100AF00021462FA824F0B0FE21462C2222A824F063
:100B0000ABFE474E4FF0A04310A930461295C6E900
:100B100000347723C6E90295CDE9103708F038F99B
:100B200008B172B6FEE7CDE91950CDE91B00CDE959
:100B30001D00CDE91F00219019A9304608F094FB53
:100B400008B172B6FEE721231C240F2513A9CDE9B5
:100B500013431923CDE917003046CDE9155308F0AA
:100B600046FB08B172B6FEE704212D4808F02EFBC3
:100B700008B172B6FEE742F21071294808F0FDFC98
:100B8000014608B172B6FEE7254808F09EF808B1A4
:100B900072B6FEE74FF400734FF480794FF4806A29
:100BA0004FF4805B4FF480424FF400314FF400204B
:100BB0004FF00208CDE92F934FF40063CDF8EC809D
:100BC000CDE931A34FF40053CDE933B34FF4803373
:100BD000CDE935234FF48023CDE937134FF08073EF
:100BE0002FA9CDE939030E4808F0BCFAD0B172B68E
:100BF000FEE700BF14640208980300241B000003F2
:100C00000000041000ED00E0004402582804002415
:100C100000500052680600240010005200180258CC
:100C20004C06002405234FF4C877012622A9229000
:100C300029902C96CDE923371023CDE92530802348
:100C4000CDE92700CDE92A30AC4808F019FA014671
:100C500008B172B6FEE7A94808F001FA044608B1E7
:100C600072B6FEE73422014622A8A54D24F0F4FD19
:100C7000DFF8DCC24FF000434FF4C97EC5F8208096
:100C80002846AC8685F83640C5E900C34FF080435E
:100C9000C5E902344FF4F173C5E90648C5E909E333
:100CA00040F2931840F2E313C5E90444C5E90B830D
:100CB0000AF070F9024608B172B6FEE7FF212490EF
:100CC0004FF4F073ADF8B8208DF8BA202D93CDE92C
:100CD0002710CDE9220707214FF4C060CDE9290193
:100CE0004FF050412846CDE92B1722A9CDE92536F2
:100CF0000AF005FA044608B172B6FEE72A687F4892
:100D0000936923F00103936108F014FB7D497E4B46
:100D10007E48CB607E4B0C804B607E4B8B6005F039
:100D200037FF32462146794805F0A2FB28231522D9
:100D300021467248009408F030FB2FA96F4839947F
:100D4000CDE92F44CDE93144CDE93344CDE93544F3
:100D5000CDE9374408F006FA22464FF44871284698
:100D60000AF0FAF92A686C489369848043F0010319
:100D700093616A4B06620360C0E9054407F05AFEBE
:100D800008B172B6FEE76648664B036009F0F0FAF8
:100D900008B172B6FEE7644C00211C222FA824F093
:100DA0005BFD01260023614904272046A3822761B9
:100DB000A6612377636384F83830E663C4E90013DF
:100DC000C4E90233C4E90933C4E90B3307F004FC76
:100DD00008B172B6FEE74FF0060940F2FF78349092
:100DE0002FA98DF8D5002F96CDE930902046CDE97A
:100DF000328706F0C7FF054608B172B6FEE74C4CD5
:100E000001461C222FA824F027FD4A4B2046A5822C
:100E1000A6612577656384F83850E663C4E9003538
:100E2000C4E90357C4E90955C4E90B5507F0D4FBDD
:100E300008B172B6FEE7404B2FA98DF8D500CDE979
:100E40003108CDE933702046CDE92F3906F09AFFFD
:100E5000054608B172B6FEE7384C014624901C22C4
:100E6000CDE922002FA824F0F7FC354B204627615E
:100E7000A582A6612577656384F83850E663C4E9E6
:100E80000035C4E90255C4E90955C4E90B5507F01A
:100E9000A3FB08B172B6FEE7229022A9204607F014
:100EA000B5FC08B172B6FEE7264B2FA98DF8D50028
:100EB000CDE93108CDE933702046CDE92F3906F070
:100EC00061FF044608B172B6FEE701462490102285
:100ED0001D4DCDE922002FA824F0BEFC1B4B284657
:100EE000AC60AC61C5E900344FF6FF73C5E903346B
:100EF0000CF048FF70B372B6FEE700BF4C0600244A
:100F00007404002468030024716F0008780300242F
:100F100075220008AD220008D0060024004C0258BB
:100F2000F40500240030005258070024002102403C
:100F3000F406002400600258000084CBBC070024A3
:100F40000020024002003004DC03002400080040BE
:100F500000100050229022A9249028460DF010F88D
:100F600008B172B6FEE7CDE92F06CDE931003A4669
:100F70002FA928460CF070FF08B172B6FEE700F00A
:100F8000A5FE00F0A2FE0DF0EFF8C34A02211020EA
:100F90000DF086FAC14BC24A00211860C1480DF01D
:100FA00016F9C14BC14A00211860C1480DF00FF974
:100FB000C04BC14A00211860C0480DF008F9C04B71
:100FC00018600DF0E3F8FEE7142200212FA8012598
:100FD00024F042FCD4F8E030002241F2083143F41E
:100FE0008073B8484FF488190026C4F8E03003270E
:100FF000D4F8E0304FF0020A4FF4807B4FF008083D
:1010000003F480730593059BD4F8E03043F00203AA
:10101000C4F8E030D4F8E03003F002030693069BF6
:10102000D4F8E03043F48063C4F8E030D4F8E03022
:1010300003F480630793079BD4F8E03043F0400348
:10104000C4F8E030D4F8E03003F040030893089B84
:10105000D4F8E03043F01003C4F8E030D4F8E030C6
:1010600003F010030993099BD4F8E03043F08003A8
:10107000C4F8E030D4F8E03003F080030A930A9B10
:10108000D4F8E03043F00403C4F8E030D4F8E030A2
:1010900003F004030B930B9BD4F8E03043F400738C
:1010A000C4F8E030D4F8E03003F400730C930C9BE8
:1010B000D4F8E03043F00803C4F8E030D4F8E0306E
:1010C00003F008030D930D9BD4F8E03043F00103C7
:1010D000C4F8E030D4F8E03003F001030E930E9B27
:1010E000D4F8E03043F02003C4F8E030D4F8E03026
:1010F00003F020030F930F9B08F0E0FB01224FF455
:10110000E041714808F0DAFB002208216F4808F03E
:10111000D5FB00224FF480716D4808F0CFFB7C2393
:101120002FA96C483195CDE92F3908F03DFA41F2ED
:1011300008332FA96348CDE92F35CDE9316708F091
:1011400033FA4FF400532FA96348CDF8C4A0CDE97A
:101150002F3908F029FA2FA960483396CDE9316676
:10116000CDE92FBA08F020FA4FF4E0432FA95648F2
:10117000CDE92F35CDE9315608F016FA2FA953489D
:10118000CDE92F85CDE9315708F00EFA2FA9514846
:10119000CDF8C4A0CDE92FA908F006FA2FA94C4834
:1011A000CDE93167CDE92FB508F0FEF980232FA9ED
:1011B0004448CDF8C4A0CDE92F3908F0F5F9D4F8AA
:1011C000D430324605212B437A204FF00409C4F86D
:1011D000D430D4F8D43040242B400493049B07F03F
:1011E0008DFB7A2007F0BCFB3D4A3E482FA91368CF
:1011F00023F0010313604FF400623B4BC66186622B
:101200008560CDF8BCA0C0E900352023C0E9039378
:101210004FF4C073C0E905434FF48053C0E908237D
:101220000723CDE934AACDE93039CDE932370CF0C6
:1012300085FB064600287FF40FAC06F0BFF8304669
:1012400006F00AF9034600283FF408AC72B6FEE740
:1012500006F05EFBFFF7D6FAFFF734FBD5F8E03077
:10126000204643F00073C5F8E030D5F8E03003F0D5
:1012700000730393039B08F02FFB2146204608F0E0
:1012800039FB1A4C4FF6FF73226817043FF59CAEEA
:10129000013BF9D272B6FEE71464020898030024F9
:1012A00074640208DB1C0008A403002450640208D4
:1012B000193E0008A00300242C640208050700085A
:1012C0009C030024002402580020025800180258F1
:1012D0000014025800280258000802580000025862
:1012E00000400052A803002440410052004402582C
:1012F0000268034B9A4201D106F038BB704700BF29
:101300000010004072B6FEE70A4B82B00F216FF06A
:101310000100D3F8F42042F00202C3F8F4200022C6
:10132000D3F8F43003F002030193019B02B007F0FD
:10133000E5BA00BF004402587FB50368384A9342BB
:1013400034D1384A13680133012B13600CD1364B6A
:10135000D3F8D82042F02002C3F8D820D3F8D830F0
:1013600003F020030193019B2F4B4FF08071D3F8C2
:10137000E020084642F00102C3F8E020D3F8E03054
:1013800003F001030293029B06F01AFB4FF0007179
:10139000084606F015FB00220521122007F0AEFAE0
:1013A000122007B05DF804EB07F0DABA1F4A934247
:1013B00022D11C4A13680133012B13600CD11A4B44
:1013C000D3F8D82042F02002C3F8D820D3F8D83080
:1013D00003F020030393039B134B4FF08071D3F86A
:1013E000E02042F00102C3F8E020D3F8E03003F03F
:1013F00001030493049BCBE70D4A93420CD10A4BA3
:10140000D3F8E02042F08072C3F8E020D3F8E03057
:1014100003F080730593059B07B05DF804FB00BFE4
:101420000020024028080024004402580021024005
:1014300000600258026882B0094B9A420DD1A3F5B0
:101440000063D3F8E02042F40022C3F8E020D3F890
:10145000E03003F400230193019B02B0704700BF0A
:10146000004C02580F4B07B502689A4217D10E4B39
:1014700007215A20D3F8D42042F01002C3F8D42018
:101480000022D3F8D43003F010030193019B07F03E
:1014900035FA5A2003B05DF804EB07F061BA03B0E7
:1014A0005DF804FB001000520044025810B5BAB0B9
:1014B00004461422002103A824F0CEF9C8220021FA
:1014C00008A824F0C9F92368B3F1A04F38D14FF030
:1014D0008062002308A8CDE908230BF095F908B134
:1014E000FFF710FF174B002403A91748D3F8E42097
:1014F00042F01002C3F8E420D3F8E42002F0100216
:101500000192019AD3F8E02042F40072C3F8E0207F
:101510000422D3F8E03003F400730293029B022309
:10152000CDE903230D23CDE90544079308F03CF8EA
:101530007B202246072107F0E1F97B2007F010FA13
:101540003AB010BD004402580024025837B53C4B55
:10155000054602689A4270D13A4B02213A4C4FF04C
:10156000007ED3F8D420DFF8ECC0204642F0200201
:10157000C3F8D4208022D3F8D43003F020030193A1
:10158000019B1123C4E900C30023C4E90232C4E96A
:10159000073220222361C4E90513C4E909E24FF4AC
:1015A000A0414FF40032C4E90D33C4E90B1209F035
:1015B0003EFE08B1FFF7A6FE00222348114609F0BF
:1015C000C4FE08B1FFF79EFE2C6313231F4A0821B7
:1015D00025644FF4A0401E4CC4E900230023C02220
:1015E000C4E9023220222362C4E906124FF00071DE
:1015F000C4E909124FF42032C4E90B022046C4E9C1
:101600000433C4E90D3309F012FE08B1FFF77AFE86
:1016100000220F48114609F098FE08B1FFF772FE4C
:101620006C63002205217920256407F067F9792091
:1016300003B0BDE8304007F093B903B030BD00BF40
:10164000003000520044025888050024C0010052B6
:101650001C0500240002005210B5B4B00446C82294
:10166000002102A824F0F8F82268184B9A422BD1E6
:101670004FF000520023052102A8CDE902231023D8
:101680000122CDE90C230223CDE90E334FF4406350
:10169000CDE910130BF0B8F808B1FFF733FE0C4B8F
:1016A00058200721D3F8E42042F00802C3F8E420D0
:1016B0000022D3F8E43003F008030193019B07F004
:1016C0001DF9582007F04CF934B010BD001000503F
:1016D00000440258F0B5BFB004461422002107A808
:1016E00024F0BAF8C82200210CA824F0B5F822682A
:1016F000534B9A4240F0A1804FF0007200230CA897
:10170000CDE90C230BF080F808B1FFF7FBFD4D4B42
:10171000022500240926D3F8D42007A94A480A271D
:1017200042F48042C3F8D420D3F8D42002F480429B
:101730000192019AD3F8E02042F04002C3F8E02081
:10174000D3F8E02002F040020292029AD3F8E0209F
:1017500042F02002C3F8E020D3F8E02002F020029B
:101760000392039AD3F8E02042F08002C3F8E0200D
:10177000D3F8E02002F080020492049AD3F8E0202B
:1017800042F00202C3F8E020D3F8E02002F00202A7
:101790000592059AD3F8E02042F00802C3F8E02051
:1017A000D3F8E03003F008030693069B4FF484431C
:1017B000CDE90735CDE909440B9607F0F5FE402346
:1017C00007A921480B97CDE90735CDE9094407F072
:1017D000EBFEC02307A91D480B96CDE90735CDE9DF
:1017E000094407F0E1FE4FF4007307A917480B976F
:1017F000CDE90735CDE9094407F0D6FE0C2307A94A
:1018000013480B96CDE90735CDE9094407F0CCFE26
:10181000042307A90F480B96CDE90735CDE9094404
:1018200007F0C2FE4FF4006307A90B480B96CDE901
:101830000735CDE9094407F0B7FE3FB0F0BD00BF62
:101840000050005200440258001802580014025878
:10185000001C025800040258000C025810B588B051
:1018600004461422002103A823F0F6FF2268184B37
:101870009A422AD1174B03A91748D3F8E82042F01F
:101880000402C3F8E820D3F8E82002F00402019231
:10189000019AD3F8E02042F00802C3F8E0204FF4A8
:1018A0000052D3F8E03003F008030293029B0223B6
:1018B000CDE90323079307F077FE1E2000220521C0
:1018C00007F01CF81E2007F04BF808B010BD00BF51
:1018D0000008004000440258000C0258F0B5B9B0AE
:1018E0000021142201A823F0B7FF3F4B19680029FB
:1018F00078D10124C02208A81C6023F0ADFF4FF06E
:101900008072002306A81894CDE906230AF07CFF14
:1019100008B1FFF7F7FC354B022700260325D3F863
:10192000D4200C2401A9324842F48052C3F8D420B8
:10193000D3F8D430059403F480530093009B40F215
:10194000FF63CDE90365CDE9013707F02DFE602384
:1019500001A928480594CDE90137CDE9036507F0D1
:1019600023FE4FF6837301A923480594CDE901377F
:10197000CDE9036507F018FE4FF47F4301A91F4826
:101980000594CDE90137CDE9036507F00DFE48F276
:10199000331301A91A480594CDE90137CDE9036550
:1019A00007F002FE4CF2037301A916480594CDE935
:1019B0000137CDE9036507F0F7FD4FF63F0301A9B5
:1019C00011480594CDE90137CDE9036507F0ECFD39
:1019D000012301A90D480594CDE90137CDE903653F
:1019E00007F0E2FD39B0F0BD24080024004402589D
:1019F000002002580004025800100258001C02582F
:101A000000180258000C025800140258000802582E
:101A10001A4B1A6810B582BB194A012440F2FF61C3
:101A200018481C60D2F8D43023F48053C2F8D43064
:101A300007F0A2FE6021144807F09EFE4FF6837166
:101A4000124807F099FE4FF47F41114807F094FEC9
:101A500048F233110F4807F08FFE4CF203710E4825
:101A600007F08AFE4FF63F010C4807F085FE21463D
:101A70000B48BDE8104007F07FBE10BD20080024D1
:101A80000044025800200258000402580010025876
:101A9000001C025800180258000C0258001402588A
:101AA000000802580F2810B504468AB002D9012058
:101AB0000AB010BD01460022362006F01FFF362076
:101AC00006F04EFF184B694602A81C60174BD3F86E
:101AD000E82042F01002C3F8E820D3F8E83003F021
:101AE00010030193019B0AF075FD079BC3B90AF02F
:101AF0004DFD0F4C0F4B236040F2E733E3600E4B7C
:101B0000B0FBF3F001380023606020462361A3603E
:101B10000CF008F90028CAD120460BF0B7FFC7E740
:101B20000AF034FD4000E4E7740000240044025849
:101B30002C0800240010004040420F00FEE7FEE7A2
:101B4000FEE7FEE7FEE77047044808B505F0DEFF54
:101B50000348BDE8084005F0D9BF00BFBC0700241A
:101B60005807002401480BF0D3BF00BFDC0300245A
:101B700001480BF0CDBF00BF2C080024014809F03C
:101B800061BA00BF74040024014806F0F3BF00BF2F
:101B900068060024014809F023B900BFF4050024B9
:101BA000044808B509F056FC0348BDE8084009F0B0
:101BB00051BC00BF1C05002488050024014807F023
:101BC000DCB900BF4C0600240120704708B523F0A3
:101BD000F7FE162303604FF0FF3008BD08B523F071
:101BE000EFFE16230360FEE770B50D4614460E4661
:101BF000731B9C4201DC204670BDAFF3008006F8E9
:101C0000010BF5E770B50D4614460E46731B9C425A
:101C100001DC204670BD16F8010BAFF30080F5E73C
:101C20004FF0FF3070474FF4005300204B60704777
:101C300001207047002070470B4A0346116810B519
:101C400009B90A491160106809490A4C0344091B83
:101C50008B4206D923F0B4FE0C2303604FF0FF3013
:101C600010BD1360FCE700BF78080024509B0224DD
:101C70000000082400100000DFF834D005F0D8FD83
:101C80000C480D490D4A002302E0D458C4500433D7
:101C9000C4188C42F9D30A4A0A4C002301E01360AD
:101CA0000432A242FBD323F091FEFEF72BFE7047D5
:101CB00000000824000000243C01002444FF0D081B
:101CC000400300244C9B0224FEE7704708B501F056
:101CD00019FDBDE8084001F09BBC01F015BD40684E
:101CE000704741607047521A02EB5302B2FBF3F0A7
:101CF00070470000024BC0681B685B6A584370471E
:101D00007C0800247047000037B51E4A4FF0804120
:101D100005464FF0FF30D2F8E83043F00103C2F837
:101D2000E830D2F8E83003F001030193019B164B31
:101D300019600021D86019619960596001215961C9
:101D4000D369102203F0700392FAA2F2B2FA82F27F
:101D5000D3400E4AD35C83B90AF0F6FB04460AF07E
:101D60002BFAB0FBF4F0E86007480BF0DBFF064805
:101D700003B0BDE830400BF04FBE0AF007FC440052
:101D8000EDE700BF004402587C0800243C8F0208A5
:101D900010B50446102122F04AFF204610BD38B588
:101DA000036804461B6931B18568984763685B1B0B
:101DB0000344636038BD9847A060FBE770470000AC
:101DC000F8B50A4B0F4616461D7815B9002528466A
:101DD000F8BD074C0020214605F0CEFC2368002BFF
:101DE000F4D063683B60A3683360F0E7D808002450
:101DF000C808002410B50446042122F018FF20462C
:101E000010BD000008B50E4B4FF448720020196851
:101E10004FF4F073C1E900230C23C1E9023005F04F
:101E20001BFC084B10B901221A7008BD1B78002B4F
:101E3000FBD1054B2E21054A054823F071FA00BF5E
:101E4000D4080024D8080024C0640208D36402081F
:101E5000FD640208032825D8DFE800F0020B131BFD
:101E6000114B08211A68B2FA82F252090F4807F0A2
:101E700025BD0D4B4FF480715A68B2FA82F25209B7
:101E8000F4E7094B4FF400719A68B2FA82F25209F2
:101E9000ECE7054B4FF480710548DA68B2FA82F23C
:101EA0005209E4E7704700BFDC0800240024025810
:101EB00000140258032825D8DFE800F0020B131B9A
:101EC000114B08211A68003A18BF01220F4807F089
:101ED000F5BC0D4B4FF480715A68003A18BF0122CF
:101EE000F4E7094B4FF400719A68003A18BF0122D9
:101EF000ECE7054B4FF480710548DA68003A18BFEB
:101F00000122E4E7704700BFDC08002400240258E7
:101F100000140258032811D8DFE800F00206090C6B
:101F20000821074807F0CFBC4FF48071F9E74FF460
:101F30000071F6E74FF480710248F3E7704700BF85
:101F4000002402580014025808B5032815D8DFE809
:101F500000F0020A0D100821094807F0A9FC431EF1
:101F60005842584108BD4FF48071F5E74FF40071B5
:101F7000F2E74FF480710348EFE70020EFE700BF7E
:101F8000002402580014025870B5084D00240126A0
:101F9000E0B2FFF7D9FF18B12B68012B18BF2E60F4
:101FA00001340435052CF3D170BD00BFDC080024DA
:101FB000012380F8781080F879307047002070474E
:101FC00041640039024B18BF01211970704700BFEE
:101FD0002B8E022400207047836B0BB108461847F4
:101FE00070474FF6FF707047406803689B69184759
:101FF000014B1868704700BF00090024704701F0CA
:1020000080BC01F00FBC01F0E1BD01F0D3BD0000C8
:1020100010B5044601F096FD94F84B3013B1024B15
:1020200001221A7010BD00BF0D00002401F002BC97
:1020300010B504460FF0DCFA23682046D3F8AC3024
:10204000BDE81040184710B504460EF067FE606802
:102050000368BDE810401B6918470EF035BD10B588
:1020600004467C2122F0E3FD204610BD024B0022F5
:102070001A700EF065BD00BF0D00002438B504468F
:10208000064D01F0FFFB0023284684F84A30FFF795
:102090003BFE0123256184F8703038BDF008002430
:1020A0000368044607B5D3F8803098472368204674
:1020B0009B6F984700F05CFF236820461B6F984792
:1020C0000021292315220548009107F066F900F048
:1020D0004FFF236820461B6F9847F8E74C06002403
:1020E00090F834100D4B10B590F878401A788C4267
:1020F00009D03AB90A490B4A08881488108001228D
:102100000C801A7010BD002AFCD0064A04491488BD
:1021100008880C8010800022F3E700BF248E022480
:10212000228E0224208E022408B5094B1B888B4284
:1021300003D8084B1B88934205D9074B9E21074AB9
:10214000074823F0EDF8074B1980074B1A8008BDAC
:10215000208E0224228E022470650208D3650208B4
:1021600016660208268E0224288E0224034690F862
:102170007A0018B1586803681B6818477047000058
:1021800070B50D4619460B4B1D6035B90A4B40F230
:10219000D2210A4A0A4823F0C3F8C0E90F52003A94
:1021A000084B18BF01221A700368BDE87040D3F8CD
:1021B0008C3018470009002469660208A1660208ED
:1021C000166602082A8E0224C0E90112C3604FF489
:1021D00080720023C0E912231D4A038580F82A304B
:1021E000C362038680F85830436680F870304367D6
:1021F00070B5C0E91A23BDF81050164ABDF8146036
:102200002035C0E90433C0E90633C0E90833C0E92A
:102210000E33C0E91033C0E91433C0E917338267C5
:10222000ADB20D4AB54210600C4A15800C4A1580BB
:1022300028BF00250B4A38BF012516800A4A80F8BE
:1022400034501680094A1370094B036070BD00BFFB
:1022500001000001000001012C8E0224208E0224C6
:10226000268E0224228E0224288E0224248E02240A
:10227000F8660208012B13B50ED8D35C1522009323
:102280000B460146084807F088F818B16FF00700C0
:1022900002B010BD0020FBE7CDE900120146392253
:1022A000014807F08BF8F0E74C0600241FB5CDE994
:1022B0000112062100910146054807F0DFF80028C9
:1022C00014BF6FF00700002005B05DF804FB00BFED
:1022D0004C0600241FB54FF201430B4C392200215C
:1022E000ADF80C3003AB2046019344230093022346
:1022F00007F064F80021352315222046009107F0ED
:102300004CF804B010BD00BF4C06002408B5FFF720
:10231000E1FF0C4B02221B68C3F810240122C3F812
:102320001024D3F8082442F00102C3F80824D3F89B
:10233000082442F00202C3F808240322024B5A6325
:1023400008BD00BF4C06002400100050074B07B525
:10235000197839B9012206481A70292315220091EB
:1023600007F01BF803B05DF804FB00BFEC08002485
:102370004C060024064B07B501932A23392200217D
:1023800000930423034807F019F803B05DF804FB39
:10239000090000244C060024064B07B501932A23AC
:1023A0003922002100930423034807F007F803B003
:1023B0005DF804FB050000244C06002438B5144DDC
:1023C00004460020FFF746FD2A6892F86A30013380
:1023D00082F86A3000F0C0FD0E4B2A6819781B782D
:1023E00082F84A1073B10C4D2B7803F0FF024BB901
:1023F0000A4B1A60FFF7BEFF204606F0BEFF01231E
:102400002B7038BD0020BDE83840FFF753BD00BF3A
:102410002C8E02240D000024080900240409002445
:102420002DE9F043484E85B004463378002B00F088
:102430008880DFF83891DFF83881D9F80050434FB1
:10244000002D3ED10120424E05F0A2FA23680095EE
:10245000D3F80424386822F0080200F59660C3F827
:102460000424D3F8042402F008020092009AD8F859
:102470000020C2F8AC0037480661374E4661374845
:10248000C2F888003648C2F8B000516A41F0010134
:1024900051620195D3F8042442F00802C3F80424E1
:1024A000D3F8043403F008030193019BFFF774FF92
:1024B00001232046C9F8003005B0BDE8F04306F01E
:1024C0005CBF0368002538680295D3F80424254CC6
:1024D00022F00802C3F80424D3F8042402F008020E
:1024E0000292029AD8F80020C2F8AC0019480461A0
:1024F00004F1011444611948C2F888001848C2F870
:10250000B0002846516A41F0010151620395D3F8A9
:10251000042442F00802C3F80424D3F8043403F07E
:1025200008030393039BFFF7C5FCFFF70FFF0E4B58
:102530003570186828B103681B6A05B0BDE8F04320
:10254000184705B0BDE8F0830809002400090024FD
:10255000E201B20100100050E30192010300920178
:10256000B304C009E20192012C8E02240409002464
:1025700074040024014608B5034B186801B1012119
:102580000FF050F8012008BD2C8E0224034B0022CE
:102590005A609A60024A1A60704700BFF00800242F
:1025A000A06402084069704790F840007047036BD0
:1025B00023B9C06A003818BF012070470120704756
:1025C000806870477047043010B50C460FC884E827
:1025D0000F0010BD7047000008B5034A4FF4E271C8
:1025E000024B034822F09CFEC8670208D18A020809
:1025F0002368020810B50446482122F018FB204643
:1026000010BD000000220E4B10B5114604460360B9
:10261000C26380F84020C0E90522C0E90722C0E972
:102620000922C0E90B22C0E90D22C0E90322C0E95A
:10263000012201200BF095FE024B1860204610BDD0
:102640005C6A02082809002410B40C4611461A4698
:10265000036B3BB1C36B406BE41A20445DF8044B41
:1026600023F002B9C06AF8E7036B10B573B1C36B0E
:10267000426BC91A5318525C98785C78000440EA9F
:1026800004201043DB7840EA036010BDC26A53188F
:10269000525C59789878000440EA0120F1E7036B16
:1026A00043B1C36BC91A436B5A18585C527840EA5D
:1026B00002207047C36A5A18585C537840EA0320D6
:1026C0007047000070B50446006B0D461646D8B141
:1026D000A36B934208D209230D4A9E210D4884F82A
:1026E00040300D4B22F01CFE0368DB689847206BDE
:1026F0003246616B03681B69984710B90D2384F853
:102700004030606BE56370BDE06A0844FBE700BFE2
:102710009868020823680208856802082DE9F843D2
:10272000436904462BB9224BE421224A224822F075
:10273000F7FD08228169FFF7C5FFA16943F2300662
:1027400046F2643704312046FFF78EFFA369184430
:10275000A36A00F108029A4206D3012300206361B4
:10276000236AA361BDE8F883636900F109010822C7
:102770002046013321F001016361A161FFF7A2FF4F
:10278000D4F8189020464946FFF789FF09F1020165
:1027900080462046FFF783FF09F1040105462046E5
:1027A000FFF762FFB045D1D1BD42CFD10120D9E7BB
:1027B000DA6802082369020823680208012903680D
:1027C00038BF0121DB6A70B50D4604469847A84220
:1027D00004D223682046DB6A984705466B1EE669EB
:1027E0001022204606EB031606F10801FFF76AFFE8
:1027F00006F110012046FFF737FF236A043B03442C
:10280000C4E9055370BD0000002148222DE9F041C4
:102810000446816180F84010FFF754FFA669042345
:10282000634A31462046FFF70FFF48B10323614A50
:102830004FF4967184F840305F4B604822F070FD91
:1028400006F1080104235E4A2046A161FFF7FCFE61
:1028500038B10423574A4FF49A7184F84030594BE9
:10286000EBE706F10C010423574A2046A161FFF76C
:10287000EBFE074638B105234E4A40F23B1184F87F
:102880004030524BD9E706F110012046FFF7ECFE2D
:10289000054620B94E4B40F24111464ACDE706F1BC
:1028A000140804234B4A20464146FFF7CDFE00287A
:1028B00049D0062384F840300423474A06F1180122
:1028C0002046FFF7C1FE00283FD0072384F84030A0
:1028D0004544424F0C2220462946FFF7F3FE05F1FE
:1028E000080604233A4620463146FFF7ADFE94F829
:1028F0004030002848D0002B48D1A36AAB4249D8C9
:1029000005F10C0304352046A3612946FFF7ACFE10
:102910003044294660622046FFF7A6FE06440422A2
:1029200020463146FFF7CEFE04232D4A314620468D
:10293000FFF78AFE002838D10123E6616361A369AD
:102940002362BDE8F0810127B6E7002FC0D006F171
:1029500020012046FFF788FE4FF47A7306F130011C
:10296000B0FBF3F060602046FFF77EFE06F1400109
:10297000A0602046FFF778FE06F14401E0602046A3
:10298000FFF772FE2061A3E7002BB9D00A2384F879
:102990004030D6E7291D2046FFF766FE85190C2238
:1029A00020462946FFF78EFE99E70B23EFE700BF8D
:1029B00056690208746902085B6902082368020804
:1029C000A1690208A6690208BE690208C369020873
:1029D000D9690208E5690208EA690208EF69020894
:1029E000F4690208C0E90A2100220263FFF70CBF64
:1029F00010B5002304460846E3620B6821639B6818
:102A00009847A0622046BDE81040FFF7FDBE0000D9
:102A100037B5144C144D23600024144B1C60144B28
:102A20001C60144B2C601C60134B1960134B1A6014
:102A3000134B1C60134B2A684FF4C0751C701C7438
:102A4000C3E90244C3E9064403EB02130E4AD26809
:102A50006A4300924FF450425B6807F037FE20460D
:102A600003B030BD549F0024309F0024409F0024B9
:102A700024090024509F0024489F00244C9F0024D8
:102A80002C090024100000240C0900244B68012BA1
:102A900015D1CB681A071EBF23F00F031033CB608C
:102AA0008B6818071EBF23F00F0310338B60CB68B1
:102AB0008A681B09120953430E4A13607047022BA0
:102AC0000ED1CB681A0703D023F00F031033CB606D
:102AD0008B685A071EBF23F0070308338B607047CB
:102AE000002BFCD1CB685807F2D023F00703083342
:102AF000EDE700BF389F00240B4A13680B4430B445
:102B000013600A4A126893420CD2094CD21A256803
:102B1000B2F5504F294428BF4FF45042216030BCD9
:102B200007F036BE30BC7047509F00244C9F0024F5
:102B3000489F0024F8B5204C0121204D064623680B
:102B40001F4F1B01E954236805EB03139A601D4BCB
:102B50001968226805EB0212D1601A68F9680A4404
:102B60001A602368013323602368012B01D90023F5
:102B7000236023681B01EB5C33B10221304607F070
:102B8000D9FD114B01221A6022683046FB6805EB23
:102B900002154FF4C07269685A4307F0FCFD0B4BF5
:102BA0001B681A7A3AB99B7A2BB9094B1868BDE8A9
:102BB000F8400BF04CBCF8BD309F002410000024FE
:102BC0000C0900242C090024409F0024349F002479
:102BD0002809002472B6FEE7014B01221A607047F3
:102BE000449F002438B5164D04462B6813B1154B8D
:102BF0001B681BBB144B1868037A63B9134B144A48
:102C00001B681B01D35C012B05D10E4B1B6813B94C
:102C100003681B6998470F4A1368012B0CD10E4BB0
:102C20000B491B681B01CB5C33B92B6823B902210C
:102C30002046136007F0DDFF022038BD0120FCE7CD
:102C4000449F002420090024349F002424090024E8
:102C500010000024409F0024309F002470B50546DA
:102C6000002A35D0002B33D01A4803240461EC68C5
:102C700026074FF4166618BF24F00F04466018BFED
:102C8000103404602409C4602C6914F00F0418BFC8
:102C9000C4F1100484601048FFF7BAFE0F4C6A6C50
:102CA0000F4B0D4D1A602846FFF79CFF20602368EC
:102CB000022B05D10B4B4FF0FF3118680BF09BFB3B
:102CC0002368012BEFD10023074A1360074A1360E2
:102CD00070BD00BF0C090024F40500243C9F0024B3
:102CE000349F002428090024449F00242009002444
:102CF0002DE9F04F9946436985B004460F4690464A
:102D00002BB9294BB021294A294822F009FB082276
:102D10008169FFF7D7FCA66920463146FFF7BFFC63
:102D2000B11C83462046FFF7BAFC311D824620467F
:102D3000FFF79AFC06F10801A36A054642189A4279
:102D400026D243F230039B4517D146F264339A45AD
:102D500013D190B10246A1612046FFF7B3FC0E9B50
:102D600001462A462046CDF80080CDE901933B4636
:102D7000FFF774FF636901336361A3692B4405B9ED
:102D800008330133626A23F001039342A36109D13E
:102D9000012301206361236AA36180F0010005B073
:102DA000BDE8F08F0020F8E7DA680208F969020848
:102DB00023680208F8B50446816916460822FFF721
:102DC00081FCA7692046391DFFF74EFC07F1080179
:102DD000024605462046FFF775FC01466EB12A46BD
:102DE000074C084D33460748FFF712FE2846FFF709
:102DF000F9FE20602368002BF8D00120F8BD00BF49
:102E00003C9F0024F40500241B4AD0F80CC0F0B508
:102E10004FEA0C1314685568184E194FB3FBF4F1C0
:102E200004FB11334D43116901FB03F401232D0110
:102E300073633F68D368FF1A1905BC4517D39268BE
:102E4000C2F110020A4372640E4AC3F132031168E0
:102E50001B010A4A21442944D163136400231361EE
:102E6000094BD3614368D360084B1360F0BD41F058
:102E700010017164E8E700BF0C0900240010005243
:102E8000389F0024549F00240B0009FF01230100F8
:102E90000C4B0022027019688260013119601968B8
:102EA000012900D91A60084B084A1B68D2689B1A8E
:102EB000C2689A4202D3064B01221A60054B186879
:102EC0000BF0C5BA24090024389F00240C09002403
:102ED00020090024280900240121002208B5084601
:102EE0000BF03FFA0A4B186028B90A4B28210A4A0E
:102EF0000A4822F015FA0022042101200BF0D0FA32
:102F0000074B186018B9074B2C21034AF0E708BD9E
:102F10005C9F0024986A0208E16A0208106B0208AC
:102F2000589F0024686B0208024B4FF0FF3118686D
:102F30000BF061BA5C9F0024014B18680BF087BA54
:102F40005C9F0024024B002118680BF054BA00BFAC
:102F50005C9F0024FFF7F0BF0023034803491A4693
:102F600000680BF0D8BA00BF589F0024300000243E
:102F700013B50023074C01A91A4620680BF0FCFA90
:102F80004FF0FF33002201A920680BF0F5FA02B0E0
:102F900010BD00BF589F002403685B6C18470120D8
:102FA0007047FEE740F2EF307047000010B504466E
:102FB0004FF0FF31D0F8A40D0BF091F96068036871
:102FC0001B68984778B9637A6BB1237A5BB984F848
:102FD000A03D204623685B6A9847D4F8A40DBDE85D
:102FE00010400BF09FB90B490B4A0B681B01D35CD7
:102FF000012BF2D1207A0028EFD1A07A0028ECD161
:10300000086884F8A03D02EB00102372FFF7FCFE75
:10301000E3E700BF2409002410000024054B4FF013
:1030200080620360044BC3F88820BFF34F8FBFF367
:103030006F8F7047106D020800E100E010B5044684
:1030400040F6A851FFF7EAFF204621F0F0FD2046A8
:1030500010BD0000104B82B0D3F8D42042F0100213
:10306000C3F8D420D3F8D42002F010020192019AC0
:10307000DA6F42F01002DA67DA6F22F01002DA67D4
:10308000064B074A1A62074A5A62074B4FF08062A2
:103090009A6002B0704700BF0044025868060024DE
:1030A000F1320008A32F000800E100E008B50A286B
:1030B00009D8DFE800F006100E0808080810101004
:1030C0001000022008BD054B9121054A054822F059
:1030D00027F90020F6E70120F4E700BFAA6B0208F9
:1030E000C56B0208106C020838B50C46887FFFF7E4
:1030F000DDFF124BA58AE28A586342EA0542216944
:103100005A64628BD963521B1A642568082D0ED14C
:103110009A611A6158620A4A207F42EA0062DA61C3
:10312000E2681A62074A5961D9601A6038BD002204
:10313000D8611A61E2689A63034AF6E70010005208
:1031400009000100012302000123030008B50B2838
:103150000BD8DFE800F00612100A0A0A0A0808086D
:103160000808022008BD0520FCE7054B7021054A30
:10317000054822F0D5F80020F4E70120F2E700BF6F
:10318000AA6B0208666C0208106C02082DE9F8436D
:103190004F7F89463846FFF7D9FF99F81E50804681
:1031A0002846FFF7D3FF06462846FFF77FFFB9F80A
:1031B0001410B9F81A40B9F81820454B641A521A7D
:1031C0001C649C611A61B9F81620586342EA0142F6
:1031D000D9F810105A64D9F80420D963DA60D9F804
:1031E000004099F81C20802C22D00FD8202C66D0CB
:1031F000402C64D0042C5CD048EA0260344BAF42CF
:1032000040F40030D86160D0324A3FE0B4F5807FAE
:1032100004D0B4F5007FEFD12F4800E02F4840EAFA
:103220000262DA61D9F80C201A625E6259612CE000
:1032300048EA0260D9F8084040F40030D8615E6284
:103240005961211DD962217841B1012921D0244B36
:1032500040F20B11234A244822F062F8DA696188AF
:1032600022F47F42013922F0100242EA0122DA619F
:103270000122174BD96941F02001D961D96989062A
:10328000FCD410219960002ABED0184A1A60BDE80B
:10329000F883D969FF3A608821F47F4118BF012281
:1032A000013821F0100141EA002141F01001D961FB
:1032B000DFE748EA026242F40032DA61B5E748EA41
:1032C0000262034B42F40032F7E742F20132DDE7DB
:1032D0000010005201230100090002000A00020050
:1032E000B06C0208CA6C0208106C020801230200CC
:1032F000024B1B68586803685B6918472C8E0224D0
:1033000090F8A03D10B50446D3B903689B6A98476E
:1033100019491A4A0B681B01D35C012B2AD11848A2
:10332000006838BB207A28BBA07A18BB086884F8EC
:10333000A03D237202EB0010BDE81040FFF764BD12
:10334000037A43B1002303720B4B18680B4B03EB5A
:103350000010FFF79DFD606803681B68984748B937
:10336000637A3BB1236884F8A00D20465B6ABDE810
:103370001040184710BD00BF24090024100000248D
:103380002009002470B504460E4B0C30002625465B
:10339000602260602672667245F8203B29460EF076
:1033A00085FA04F55A63EE6024359D42FBD184F81A
:1033B000A06D0020C4F8A46D0AF05CFFC4F8A40D51
:1033C000204670BD106D0208034B1A68D207FCD46A
:1033D00023229A60704700BF001000520B4A5369C5
:1033E000DB0311D500290FDD00F01F031944BFF3E3
:1033F0004F8F0144C2F8680220300B1A002BF9DC11
:10340000BFF34F8FBFF36F8F704700BF00ED00E039
:1034100030B5104C2568ED07FCD423250904FF2B9B
:10342000A5604FF0010541EA050165636164E06351
:103430000CD0094922F07F42656241EA0363E361EF
:10344000064B22626061E060236030BDE561044BA1
:10345000A263F9E700100052090001000100020018
:103460000100030030B50E4C2568ED07FCD4232580
:103470001204FF2BA5604FF0010542EA05026563C7
:103480006264E063E16007D0064A42EA0363E361F5
:1034900065626061226030BD034BE3612560FAE73D
:1034A0000010005201000200010002FF30B50B4C79
:1034B0002568ED07FCD4232512041B06A560012511
:1034C00043F400332A4365636264E063E160E361CF
:1034D000034B65626061236030BD00BF0010005285
:1034E00001000200012070470C2070470C2303FBF1
:1034F0000100083070470C2303FB010008307047BF
:103500000120704743F6B430704743F6B43303FBF1
:1035100001000830704743F6B43303FB0100083064
:103520007047012070471020704700EB01100830F1
:10353000704700EB011008307047084600F056BE97
:10354000034B10B5044603600DF015F8204610BD7E
:10355000C86D020810B50446FFF7F2FF142120469B
:1035600021F065FB204610BD034B10B504460360F7
:103570000DF001F8204610BD946D020810B5044608
:10358000FFF7F2FF43F6BC31204621F050FB204606
:1035900010BD0000034B10B5044603600CF0EBFFB8
:1035A000204610BD606D020810B50446FFF7F2FF1B
:1035B0001821204621F03BFB204610BD094B10B5D9
:1035C0000446036000F56F502830FFF7B9FF04F19F
:1035D0002C00FFF7C9FF04F11400FFF7DBFF2046C2
:1035E00010BD00BFFC6D020808B50248FFF7E6FFFA
:1035F00008BD00BF18AE002410B50446FFF7DEFF7B
:1036000043F66051204621F012FB204610BD000019
:103610002DE9F34100F060FC0024054600F060FC59
:103620002346014622462846009416F07BFD274B90
:10363000274A2046274D1A6002F01EF8264B274ADB
:1036400027489A6016F01AFC2B68BFF35B8FDB07E4
:1036500036D4284621F0EDFA90B3224C224F234B6A
:1036600004F1140007F11C0604F12C0823606060CB
:10367000C4F80880E76026610CF07EFF1C4B4046D2
:1036800063610CF079FF1B4B3846E3620CF074FF6A
:1036900004F54053184A03F6FC30C3F8E82B02F057
:1036A00079F8224607F11401304602F069F83046F5
:1036B00000F09CFD114821F051FE284621F0C5FA8A
:1036C0000F4802B0BDE8F041FEF7D8BC908E02244E
:1036D000DC9F002414AE0024FC9F0024E09F002403
:1036E0003400002418AE002400EA0024FC6D020817
:1036F000606D0208946D0208C86D0208E935000883
:10370000609F0024704700000148FEF7C9BC00BF5D
:10371000609F002473B50E4C0E4B0F4E20460F4D8C
:103720003360FFF72FFE28461AF014FB0C4814F004
:1037300001F94FF448734FF4F07221460948CDE97E
:10374000003233462A46FEF73FFD02B070BD00BF8F
:1037500068A000246065020810AE0024FC9F0024CD
:10376000E09F0024609F00240148FFF757BC00BF82
:1037700068A000240020704781807047C180704796
:1037800001817047418170477047704770477047AB
:10379000704710B4C4880368121B84885B6D091BD2
:1037A00012B25DF8044B09B218474FF6FF738381DC
:1037B0004FF0FF3303621368C3611060704700204D
:1037C00070478B88838001207047704780F82610EF
:1037D000704790F826007047002210B5B1F90840F4
:1037E000B1F90A10028042808480C18010BD00229D
:1037F000028042808280C28070470177704780EDEE
:10380000080A704780F82410704780F82510704728
:1038100001207047983070478C3070478430704773
:1038200070470000024B902283F85A23704700BF74
:1038300000E100E070470163C0E90D217047704767
:103840007047704700EB8100114640680368DB68F1
:10385000184780F83C10704710B50446482121F005
:10386000E6F9204610BD10B504462C2121F0DFF901
:10387000204610BD10B50446BC2121F0D8F92046E1
:1038800010BD000038B504460DF073F923685D6E75
:1038900012F022FF01462046A84723680849204627
:1038A000D3F8885000231A46A8476368054A536432
:1038B000054B5A60054A1A639A63054A5A6338BD34
:1038C000009411D080EC002438EC0024000000D0DB
:1038D0000094110038B504460D46406C4FF0FF319E
:1038E0000AF0FDFC606C0AF01DFD242303FB054576
:1038F000002385F8283094F828300BB9236BA36394
:1039000038BD0DF0E7B80DF048BA90F8252012B197
:1039100003685B6918477047124A5369DB0370B547
:103920001ED50023C2F88430BFF34F8FD2F8803009
:1039300043F6E074C3F3C900C3F34E335B0103EAFB
:103940000406014646EA81750139C2F87452F9D27B
:10395000203B13F1200FF2D1BFF34F8FBFF36F8FD6
:1039600070BD00BF00ED00E008B531B1044B4FF46D
:10397000B871044A044821F0D3FC90F8290008BD2E
:10398000086E02081C6E0208A66F020810B531B15D
:10399000064B4FF4B571064A064821F0C1FC406859
:1039A00011460368BDE810401B6B1847086E0208FB
:1039B000F06F0208A66F020808B529B1034B792100
:1039C000034A044821F0ACFCC06808BD086E020838
:1039D0009E710208A66F020810B5044629B1194B62
:1039E000A221194A194821F09BFC052A15D8DFE8C5
:1039F00002F0031115171C22406803681B699847E1
:103A000058B1012384F8293084F82C300023C4E90C
:103A1000043302E0002380F8293010BD0362F5E78B
:103A20000362012380F82A30F0E7002380F8293070
:103A300001230362F1E7003B18BF012380F82D301A
:103A4000EBE700BF086E020853730208A66F020876
:103A500010B50C4611461A462CB1064B9021064A69
:103A6000064821F05DFCC46040680368BDE8104072
:103A70009B681847086E020827750208A66F02089F
:103A800008B529B1054B8221054A064821F048FCBA
:103A9000C0E90411C0E9063208BD00BF086E020883
:103AA00002770208A66F020890F83D3010B5044670
:103AB00053B14FF0FF31406C0AF011FC002384F841
:103AC0003D30012384F83E3010BD90F825201AB116
:103AD00090F8242002B118607047000010B5044629
:103AE000104629B1134BD021134A144821F018FC79
:103AF00094F8293033B1124B1B6893F86B2063693B
:103B00001344636194F82B300BB9012010BDA368F6
:103B1000036303685B699847002394F82C0084F8DA
:103B20002B300028F1D194F82D30002BEED184F801
:103B30002900EBE7086E0208BE780208A66F0208AB
:103B40002C8E022470B51A4C05460DF005F894F839
:103B5000293013B994F82A30ABB1E169D4E90532C0
:103B6000534322694A4393420DD394F83C0038B141
:103B70009B1AB3FBF1F2994298BF02F1FF326262E5
:103B8000012384F82E300123206C84F83D300AF0A4
:103B90005EFC94F83E302BB1606C0AF0C3FB00234E
:103BA00084F83E3068680368BDE870401B691847B8
:103BB00038EC0024044B4FF08062C3F88820BFF338
:103BC0004F8FBFF36F8F704700E100E0024B4FF063
:103BD00080629A60704700BF00E100E0F8B50346DC
:103BE00090F82800D8B94FF480729E6B0125D860F8
:103BF0009A8506F58C12186102F5A05258619861F9
:103C0000D861186258629D6283F82E00D3E90C4790
:103C10003C44A2420AD90B4B52210B4A03E00B4B06
:103C200040F2C5110A4A0B4821F07AFB9E609A6364
:103C30004FF4487381F83450CB864FF4F073086327
:103C40000B87F8BD167C0208517C02085F7A0208D7
:103C50008F7A0208A66F0208002370B5124E044640
:103C60008380124B0360336893F858200AB1D86CF4
:103C700000B998680368DB6A9847431E5D425D415E
:103C80003368D86C30B10368DB6A9847012808BFF5
:103C900045F001052DB9064B2721064A064821F0BB
:103CA0003FFB204670BD00BF2C8E0224047F02081B
:103CB000F47D0208527E02088B7E020870B5244E05
:103CC0003568BFF35B8F15F001053FD1304620F01A
:103CD000B0FF00283AD01F4C1F4B04F1340025617F
:103CE000E584A562A585C4E90035C4E9025514F050
:103CF00080F804F158000FF05FF9184B2046A365D7
:103D0000174B40F8843BFFF7A7FF164B1648C4F843
:103D100084302433C4F89050C4F88C306423C4F841
:103D20009C50C4F8A850C4E928350023C4F8AC302E
:103D3000C4F8B030C4F8B430C4F8B8300B4BC4F891
:103D4000983021F00BFB304620F07FFF014870BD1A
:103D500078EB00247CEB0024CC920208247F02083C
:103D60009C7F02081893020821380008509302082B
:103D70002DE9F743044601264FF416674FF0FF3153
:103D8000206C0AF038FB4FF0FF31606C0AF0A7FAA4
:103D900094F82E3043B36568D4F820802B6884F8FB
:103DA0002B60B8F1000F23D05B6A41462846984744
:103DB000002323622B684FF4487200972846D3F8FB
:103DC00014804FF4F073A168C047236984F82C0075
:103DD00001332361F0B12B6828469B6A984701386C
:103DE0000023E06084F82E30606C0AF09BFAC5E78F
:103DF000626A002ADED02846D3E909939847616AAF
:103E000001442846C8472369626AC4F824801344E1
:103E10002361CFE70120E3E7014808B5FFF7A8FFDA
:103E200038EC002438B514480025FEF7EBFB134CA2
:103E3000134B2A462946012023604FF48073A56363
:103E4000A387A38584F83E5084F82E50C4E90C550E
:103E5000C4E91055C4E90155C4E90355C4E9055541
:103E6000C4E90755C4E909550AF07BFA20642846DD
:103E70000AF000FA606438BD80EC002438EC0024BD
:103E8000E87F0208704708B505291CD8DFE801F073
:103E900003070B0F131701F03BFC006808BD01F08E
:103EA00037FC4068FAE701F033FC8068F6E701F080
:103EB0002FFCC068F2E701F02BFC0069EEE701F08F
:103EC00027FC4069EAE70020E8E710B50446042132
:103ED00020F0ADFE204610BD004870473880020833
:103EE0000120704713B5002451B1036801AA019461
:103EF0008DF803409C680DF10303A04702B010BD8C
:103F00000846FBE7C0897047008A7047C088704741
:103F100080887047807A00F07F007047807AC009FF
:103F200070470020704700009FED010A704700BFF6
:103F300000000000704710B50446082120F077FE0D
:103F4000204610BD7047704700F5987308684968AF
:103F500003C3704770477047416070477047000067
:103F6000064BC0F84801C0F84C310023C0F850316E
:103F700000F5A273C0F84031704700BF214000082F
:103F80000123037270477047704710B441680346BD
:103F9000C2689B68541001EB6200D20748BF0A59FF
:103FA0005DF8044B48BFD35818470346406830B10A
:103FB0009A681AB9D86800F001007047012070476C
:103FC00010B504460C2120F032FE204610BD10B57D
:103FD0000446102120F02BFE204610BD10B50446EB
:103FE0004FF4AE7120F023FE204610BD10B512F044
:103FF00073FB0368BDE81040DB6B184710B504463F
:10400000D0F8400158B10368DB68984738B1D4F85C
:10401000400103689B6898470023C4F8403110BDF5
:104020002DE9F14FD0E9556A0746B06803681B6A6D
:10403000984743F6B333984205D8444BA321444AEA
:10404000444821F06DF9706803681B6A98470F288F
:1040500003D8414BA4213E4AF2E7F06803681B6A8B
:1040600098470B2803D83D4BA521394AE8E7DFF8EC
:10407000F49012F031FB043012F053FBD9F8000039
:1040800010B10368DB689847D9F8000010B10368E5
:104090001B689847DFF8D080D8F8000010B103689B
:1040A0005B699847D7F83C0110B103685B68984793
:1040B000D8F8000010B103681B689847D7F83C0196
:1040C00010B103689B689847F06800214FF0000B1F
:1040D00003685B6A9847224B0446C0F804B080F836
:1040E00008B059460360B06803685B6A98470546A4
:1040F00001F0A2FC7068594603685B6A984706465F
:10410000294601F06DFC331DC7F83C612846CAF80A
:1041100004302B68C6F808A0DB68C9F80040C8F86E
:104120000050EE639847336830461B689847214635
:10413000284614F08FFB236820461B6998472368A4
:1041400020465B6901B0BDE8F04F18475C8002086B
:10415000EA800208BC81020811820208B4820208C7
:10416000CC830208748E0224708E0224044B1B68D8
:1041700093F858200AB1D86C00B99868704700BF0E
:104180002C8E0224F8B5174604460E4612F06AFB40
:10419000124B00251C602946114B2360114BC4E9CA
:1041A0005135114B1868C4E953550368C4E94F559C
:1041B0009B68C4E955769847284601F05DFAFFF7F9
:1041C000D5FF1AF0C8FEFFF7D1FF1AF03BFFFFF74B
:1041D000CDFF1AF043FF2046F8BD00BF808E0224B9
:1041E00078830208608302082C8E0224064BC0F8F4
:1041F0004801C0F84C310023C0F8503100F5A273DB
:10420000C0F84031704700BF21400008406A704745
:10421000806A704770478B88C069DB0A0A6850F86B
:1042200023001044704710B50446BAB1107B68B142
:10423000537BD27A1B0203F4E0631A43236A03EB35
:1042400082031A888A4202D193F9020010BD05D870
:104250000138043380B20028F3D1F7E70020F5E7F6
:1042600010B504462C2120F0E2FC204610BD0000D1
:1042700030B58BB00446BDF860500895BDF85C5071
:1042800007959DF8505006959DF84C5005959DF862
:10429000485004959DF8445003959DF84050029570
:1042A0009DF83C500195BDF83850009513F05EFE26
:1042B000064B20462360159BE361169B2362199BE6
:1042C00063621A9BA3620BB030BD00BFF08302088B
:1042D0007047704770477047704730B585B00368C6
:1042E000044601816D460146D3F884303C342846AB
:1042F000984795E8070084E8070005B030BD30B561
:1043000085B00368044641816D460146D3F8843088
:104310003C342846984795E8070084E8070005B034
:1043200030BD0022028042808280C280704780F8C7
:1043300036107047036870B504461B6B15469847E6
:104340002368204629465B6EBDE870401847002070
:104350007047806C70477047704710B504464C2119
:1043600020F065FC204610BD034B10B504460360E9
:1043700010F0BAFC204610BD48860208064B10B566
:104380000446036010F0B0FC43F6B431204620F040
:104390004EFC204610BD00BF4886020808B5FFF756
:1043A000B4FA08BD036870B55E6B0446114B8DB25C
:1043B0001B682BB9104B6C21104A114820F0B0FF3C
:1043C0001049828D0988914203D80F4B6D210B4A09
:1043D000F3E713F812200D4B1B6853F82200036813
:1043E0001B6B9847291A3346204609B2BDE8704036
:1043F000184700BF848E0224508402089284020869
:10440000CD840208888E0224228502088C8E022424
:10441000036870B504461B6B154698472368204611
:1044200029465B6BBDE87040184770B504461D46D1
:10443000BDF91060FFF7ECFF2368294620469B6B0F
:104440009847236831462046DB6BBDE8704018472B
:10445000094A4FF48071026000228184FF21826248
:1044600080F82610C0E90122C0E90322C0E9052234
:10447000C0E90722704700BF0496020838B5044619
:104480000D46FFF7E9FB034B2046E560236024332C
:10449000A36038BD1893020800224FF0FF318260FC
:1044A000C0E90021704700004FF48072002310B56E
:1044B000828404460C4A036302600C4A03878262CA
:1044C0004FF6FF7282854FF47F02C0E90133C0E9E5
:1044D0000333C0E90533C0E9073342633C30FFF7DB
:1044E000DBFF204610BD00BF74950208548002080F
:1044F00010B50446FFF7D0FF204610BD10B50446A6
:10450000FFF7D2FF024B204623600023A36410BDB7
:10451000B8850208520149010FF038B8520149012B
:104520000FF03FB810B4C46B4A01B4EB411F04D084
:104530005DF8044BC2630EF033BF5DF8044B704767
:104540002DE9F04F0446B5B0002513F0D7FF2646FD
:10455000E14B04F16C0904F19808E56304F58E7BE6
:1045600046F8403B3046FFF773FF4846FFF770FFC1
:1045700040460EF0F5FE04F5847329464FF4F077BB
:1045800018461F93FFF77AFF58460EF0E9FE04F530
:10459000C673294604F1040A18462093FFF76EFFFC
:1045A00004F5D073184603930EF0DAFE04F5047395
:1045B000294618462193FFF761FF04F50973184651
:1045C00004930EF0CDFE04F5257329461846229378
:1045D000FFF754FF04F52A73184605930EF0C0FE4A
:1045E00004F54673294618462393FFF747FF04F561
:1045F0004B73184606930EF0B3FE04F56773294615
:1046000018462493FFF73AFF04F56C731846079396
:104610000EF0A6FE04F58463294618462593FFF79D
:104620002DFF04F23443184608930EF099FE04F26D
:10463000A443294618462693FFF720FF04F5976305
:10464000184609930EF08CFE04F5A563294618461A
:104650002793FFF713FF04F23C5318460A930EF01A
:104660007FFE04F2AC53294618462893FFF706FF55
:1046700004F5B86318460B930EF072FE04F5C6639A
:10468000294618462993FFF7F9FE04F244631846B9
:104690000C930EF065FE04F2B463294618462A9383
:1046A000FFF7ECFE04F5D96318460D930EF058FEA3
:1046B00004F5E763294618462B93FFF7DFFE04F263
:1046C0004C7318460F93FFF7EFFE04F294731846ED
:1046D0001093FFF7E9FE04F2DC7318461193FFF71D
:1046E000E3FE04F6240318461293FFF7DDFE04F6FA
:1046F0006C0318461393FFF7D7FE04F6B40318466D
:104700001493FFF7D1FE04F6FC0318461593FFF748
:10471000CBFE04F6441318461693FFF7EFFE04F59C
:10472000196318461793FFF7BFFE04F6D81318460F
:104730001893FFF7E3FE04F6242318461993FFF7B6
:10474000DDFE04F5276318461A93FFF7D7FE04F63B
:10475000BC2318461B93FFF7D1FE04F60833184616
:104760001C93FFF7CBFE04F6543318461D93FFF756
:10477000C5FE04F53A6318460E93FFF795FE04F65E
:10478000E83318461E93FFF7B9FE42F6E06104F6DF
:10479000D44010F09FFA2A4630464FF44873294619
:1047A0000097FFF742FE4FF07F4331465046A36625
:1047B0004FF0FF360BF0F4FE2A4648464FF448739C
:1047C00029460097FFF731FE4FF07F434946504698
:1047D000C4F894304FF6FF790BF0E2FE40464FF4F8
:1047E00048732A4629460097FFF71FFE1F9B404645
:1047F0004FF4AA72C4F8C0304FF4967184F81A913D
:10480000C4F81461A4F81861FFF784FE50224046F2
:104810004FF49671FFF782FE40460121FFF782FEBA
:10482000404601210EF0C8FE414650460DF1B00849
:104830000BF0B6FE58464FF448732A4629460097B7
:10484000FFF7F3FD209B58464FF4AA72C4F8443199
:104850004FF4FA71A4F89C91C4F8986184F89E61B1
:10486000FFF758FE502258464FF4FA71FFF756FEF4
:1048700058460121FFF756FE584601210EF09CFED6
:1048800059465046DFF854B00BF08AFE4FF4487397
:104890002A46294603980097FFF7C7FD219B692206
:1048A0002946C4F8C831039884F82292C4F81C62DF
:1048B000A4F82062FFF72EFE69224FF44871039896
:1048C000FFF72CFE01210398FFF72CFE012103982E
:1048D0000EF072FE04E000BF488602085480020811
:1048E000039950460BF05CFE4FF448732A46294664
:1048F00004980097FFF799FD229B4FF4AA7229466E
:10490000C4F84C32049884F8A692C4F8A062A4F8C3
:10491000A462FFF7FFFD4FF4AA724FF448710498A8
:10492000FFF7FCFD01210498FFF7FCFD012104982D
:104930000EF042FE049950460BF032FE4FF44873DD
:104940002A46294605980097FFF76FFD239BD22240
:104950002946C4F8D032059884F82A93C4F8246311
:10496000A4F82863FFF7D6FDD2224FF4967105987C
:10497000FFF7D4FD01210598FFF7D4FD012105982B
:104980000EF01AFE059950460BF00AFE4FF44873DC
:104990002A46294606980097FFF747FD249BD22216
:1049A0004FF4FA71C4F85433069884F8AE93C4F8FF
:1049B000A863A4F8AC63FFF7ADFDD2224FF44871B1
:1049C0000698FFF7ABFD01210698FFF7ABFD01212B
:1049D00006980EF0F1FD069950460BF0E1FD4FF4FC
:1049E00048732A46294607980097FFF71EFD259B26
:1049F00050222946C4F8D833079884F83294C4F872
:104A00002C64A4F83064FFF785FD50224FF4487100
:104A10000798FFF783FD01210798FFF783FD012128
:104A200007980EF0C9FD079950460BF0B9FD4FF4F9
:104A300048732A46294608980097FFF7F6FC269BFC
:104A400040F26D122946C4F85C34089884F8B69494
:104A5000C4F8B064A4F8B464FFF75CFD40F26D12D2
:104A60004FF448710898FFF759FD01210898FFF7A6
:104A700059FD012108980EF09FFD089950460BF052
:104A80008FFD4FF448732A46294609980097FFF78F
:104A9000CCFC279B3A464FF4C871C4F8E03409981F
:104AA00084F83A95C4F83465A4F83865FFF732FD08
:104AB0004FF4AA724FF4C8710998FFF72FFD012136
:104AC0000998FFF72FFD012109980EF075FD09994E
:104AD00050460BF065FD4FF448732A4629460A9864
:104AE0000097FFF7A2FC289B3A46C821C4F864351A
:104AF0000A9884F8BE95C4F8B865A4F8BC65FFF7B9
:104B000009FD4FF4AA72C8210A98FFF707FD012199
:104B10000A98FFF707FD01210A980EF04DFD0A994A
:104B200050460BF03DFD4FF448732A4629460B983A
:104B30000097FFF77AFC299B3A464FF41671C4F8A8
:104B4000E8350B9884F84296C4F83C66A4F84066B1
:104B5000FFF7E0FC4FF4AA724FF416710B98FFF7C1
:104B6000DDFC01210B98FFF7DDFC01210B980EF015
:104B700023FD0B9950460BF013FD4FF448732A4662
:104B800029460C980097FFF750FC2A9BEB222946F8
:104B9000C4F86C360C9884F8C696C4F8C066A4F8BD
:104BA000C466FFF7B7FCEB224FF496710C98FFF741
:104BB000B5FC01210C98FFF7B5FC01210C980EF013
:104BC000FBFC0C9950460BF0EBFC4FF448732A4663
:104BD00029460D98009731AFFFF727FC2B9BEB225E
:104BE0004FF4FA71C4F8F0360D9884F84A97C4F877
:104BF0004467A4F84867FFF78DFCEB224FF4487137
:104C00000D98FFF78BFC01210D98FFF78BFC01211C
:104C10000D980EF0D1FC0D995046DFF834920BF050
:104C2000BFFC51224FF4BA710F98FFF7F1FB0F99B7
:104C30004046C4F87C67A4F880570EF05FFE04F588
:104C4000F16398E8070083E80700182339460F98B6
:104C5000ADF8C830CDF8C4B00FF0F8F80F99504651
:104C60000BF09EFC512240F275211098FFF7D0FB0B
:104C700010994046C4F8C467A4F8C8570EF03EFE29
:104C800004F5FA6398E8070083E80700162339461D
:104C90001098ADF8C830CDF8C4B00FF0D7F810991F
:104CA00050460BF07DFCD32240F277211198FFF79C
:104CB000AFFB11994046C4F80C68A4F810580EF0E8
:104CC0001DFE04F6180398E8070083E80700152383
:104CD00039461198ADF8C830CDF8C4B00FF0B6F829
:104CE000119950460BF05CFC4FF4AB7254211298B2
:104CF000FFF78EFB12994046C4F85468A4F8585840
:104D00000EF0FCFD04F5066398E8070083E8070051
:104D1000142339461298ADF8C830CDF8C4B00FF05E
:104D200095F8129950460BF03BFC4FF4AB7240F2F1
:104D300009111398FFF76CFB13994046C4F89C685F
:104D4000A4F8A0580EF0DAFD04F6A80398E80700CE
:104D500083E80700132339461398ADF8C830CDF81F
:104D6000C4B00FF073F8139950460BF019FC5122A0
:104D700069211498FFF74CFB14994046C4F8E46885
:104D8000A4F8E8580EF0BAFD04F50F6398E80700A0
:104D900083E80700172339461498ADF8C830CDF8DA
:104DA000C4B00FF053F8149950460BF0F9FBD3221E
:104DB00070211598FFF72CFB15994046C4F82C6913
:104DC000A4F830590EF09AFD04F6381398E807005D
:104DD00083E80700022339461598ADF8C830CDF8AE
:104DE000C4B00FF033F8159950460BF0D9FB5B2295
:104DF00040F259111698FFF70BFB3846C4F8746956
:104E0000A4F87859FFF748FB04F5186397E8070002
:104E100083E8070004F634430393D9F800302BB934
:104E2000064B6021064A074820F07AFA064B1B8899
:104E3000112B0FD8054B6121014AF4E75084020879
:104E400060850208CD840208888E0224228502082B
:104E5000848E0224D44B1121186800F049FC0A21E9
:104E60000346D24A039814F0FBFF039A1698C4F83D
:104E70008C290EF0CBFF122339461698ADF8C830B6
:104E8000CDF8C4B00EF0E2FF169950460BF088FB47
:104E90005B224FF4A4711798FFF7BAFA40461799AE
:104EA000C4F8C069A4F8C4590EF028FD04F6CC1368
:104EB00098E8070083E807004FF01002394617987A
:104EC00004F64848ADF8C820CDF8C4B00EF0BEFFD7
:104ED0001799504684F8B5590BF062FB5C2240F2FA
:104EE000FF111898FFF794FA3846C4F8086AA4F836
:104EF0000C5AFFF7D1FA04F6142397E8070083E869
:104F00000700D9F80030002B8AD0A94A13880E2B4D
:104F100090D9A54B0E21186800F0EAFBA34A03467E
:104F20000A21404614F09CFF1898C4F8208A04F621
:104F30005C480EF06BFF0F2339461898ADF8C83067
:104F4000CDF8C4B00EF082FF189950460BF028FB44
:104F5000DD2240F237211998FFF75AFA3846C4F893
:104F6000546AA4F8585AFFF797FA04F5266397E8AD
:104F7000070083E80700D9F80030002B3FF450AF5A
:104F80008B4A13880C2B7FF655AF874B0C21186882
:104F900000F0AEFB854A03460A21404614F060FF4C
:104FA0001998C4F86C8A04F547680EF02FFF0D239A
:104FB00039461998ADF8C830CDF8C4B00EF046FFA8
:104FC000199950460BF0ECFA4FF4B57210211A986B
:104FD000FFF71EFA3846C4F8A06AA4F8A45AFFF7EF
:104FE0005BFA04F6AC2397E8070083E80700D9F8DA
:104FF0000030002B3FF414AF6D4A13880A2B7FF664
:1050000019AF694B0A21186800F072FB674A034622
:105010000A21404614F024FF1A98C4F8B88A0EF00A
:10502000F5FE0B2339461A98ADF8C830CDF8C4B058
:105030000EF00CFF1A9950460BF0B2FA4FF4B5720D
:10504000D8211B98FFF7E4F9A4F8F05A3846C4F8C1
:10505000EC6AFFF721FA04F6F82304F6844597E892
:10506000070083E80700D9F80030002B3FF4D8AEE2
:105070004F4A1388082B7FF6DDAE4B4B08214D4E6F
:105080004FF0FF381868002700F032FB474A03460C
:105090000A212846DFF8209114F0E2FE1B98C4F89C
:1050A000045B31AD0EF0B2FE092329461B98ADF822
:1050B000C83004F6984B31960EF0C8FE1B99504646
:1050C0000BF06EFA742203211C98FFF7A1F9284611
:1050D000C4F8388BA4F83C7BFFF7DEF904F64433C0
:1050E00095E8070083E80700D9F80030002B3FF46B
:1050F00097AE2F4A1388062B7FF69CAE2A4B0621CB
:10510000186800F0F5FA294A03460A21584614F0B7
:10511000A7FE1C98C4F850BB04F6AC4B0EF076FE0C
:10512000072329461C98ADF8C83031960EF08EFE44
:105130001C9950460BF034FAF02203211D98FFF71A
:1051400067F92846C4F8848BA4F8887BFFF7A4F994
:1051500004F5396395E8070083E80700D9F80030C3
:10516000002B3FF45DAE124A1388032B7FF662AE2C
:105170000D4B0321186800F0BBFA0C4A03460A21C4
:10518000584614F06DFE1D98C4F89CBB0DF1B00B91
:105190000EF03CFE042329461D98ADF8C830319628
:1051A0000EF054FE0AE000BF908E0224AB85020888
:1051B000888E022454800208848E02241D99504651
:1051C0000BF0EEF90A2240F2DF210E98FFF720F9EA
:1051D0000E995846C4F8D08BA4F8D47B0EF08EFB01
:1051E0000E9901F13C039BE8070083E807000523C3
:1051F00029460E98ADF8C83031960EF027FE0E996C
:1052000050460BF0CDF90A2240F2B9211E98FFF763
:10521000FFF8C4F8188C2846A4F81C7CFFF73CF96A
:1052200004F6244304F54C6895E8070083E807007A
:10523000D9F80030002B3FF4F3AD124A1388002B4D
:105240003FF4F8AD104B3946186800F051FA0F4A98
:1052500003460A21404614F003FE1E98C4F8308C21
:105260000EF0D4FD012329461E98ADF8C8303196C2
:105270000EF0ECFD50461E990BF092F9204635B029
:10528000BDE8F08F888E0224908E0224AB85020840
:105290007047000030B5184D8FB02C68BFF35B8F9E
:1052A00014F0010424D128461FF0C3FC00B3134BB3
:1052B0000222134913480A94CDE90B433F23099373
:1052C000114B0893114B07930423CDE905320122BA
:1052D000CDE9033264235B2200937923CDE90144B5
:1052E000FEF7C6FF0A4820F039F828461FF0ADFC4B
:1052F00004480FB030BD00BFC8EC0024748602081B
:10530000D8EA0D08CCEC0024E8FE0D0800FF0D08DB
:10531000915200087047000030B5184D8FB02C68CE
:10532000BFF35B8F14F0010424D128461FF081FCE9
:1053300000B3134B0722134913480A94CDE90B43DA
:105340003F230993114B0893114B07930423CDE995
:1053500005230122CDE90332C8235B220093F22307
:10536000CDE90144FEF784FF0A481FF0F7FF284605
:105370001FF06BFC04480FB030BD00BFF8EC0024F8
:1053800074860208D4EF0D08FCEC0024ECFE0D0836
:1053900004FF0D08155300087047000030B5174D85
:1053A0008FB02C68BFF35B8F14F0010423D1284623
:1053B0001FF03FFCF8B1124B5B22124912480A94CD
:1053C0000194CDE90B433F230993104B0893104BF5
:1053D00007930123CDE9053304930423CDE9024368
:1053E000142300931823FEF743FF0A481FF0B6FF6B
:1053F00028461FF02AFC04480FB030BD28ED0024D9
:1054000074860208D0F40D082CED0024F0FE0D087F
:1054100008FF0D08995300087047000030B5184D7B
:105420008FB02C68BFF35B8F14F0010425D12846A0
:105430001FF0FFFB08B3134B0222012112480A940C
:10544000CDE90B433F230993104B0893104B07936F
:105450000323CDE9053204235B22CDE90331422346
:105460000C4900935023CDE90144FEF701FF0A489F
:105470001FF074FF28461FF0E8FB03480FB030BD53
:1054800058ED0024748602085CED0024F4FE0D083B
:105490000CFF0D08CCF90D081954000870470000E6
:1054A00030B5164D8FB02C68BFF35B8F14F001043C
:1054B00020D128461FF0BDFBE0B13F230122104957
:1054C0000993104B10480893104B0A940594CDE9AA
:1054D00006430423CDE903320A23CDE90B440093AC
:1054E000CDE90144FEF7C4FE09481FF037FF284606
:1054F0001FF0ABFB04480FB030BD00BF88ED0024A7
:10550000C8FE0D08F8FE0D088CED002410FF0D08F4
:105510009D5400087047000030B5164D8FB02C68C0
:10552000BFF35B8F14F0010420D128461FF081FBEC
:10553000E0B13F23012210490993104B1048089312
:10554000104B0A940594CDE906430423CDE90332B8
:105550002823CDE90B440093CDE90144FEF788FEF2
:1055600009481FF0FBFE28461FF06FFB04480FB0F0
:1055700030BD00BFB8ED0024D8FE0D08FCFE0D08BC
:10558000BCED002414FF0D081555000800207047DD
:10559000002070470EB403B503AB002153F8042B71
:1055A000019311F0E7FF02B05DF804EB03B0704720
:1055B0000CB407B504AB53F8042B019311F0DAFFD8
:1055C00003B05DF804EB02B070470000436C10B507
:1055D000044673B3038F2BB9184BC521184A1948D9
:1055E0001FF09EFEC38E00EB43035B8C0BB313F0E6
:1055F0008FFE238F012B03D8134BCB21134AEEE7E9
:10560000E28E40F63F10531C9BB2092B194688BF0F
:10561000A3F10A0104EB4101498C814209D10A2B13
:1056200004EB420228BF0023508C04EB4303588450
:1056300051842046BDE8104013F06CBDCA8A0208B0
:10564000D38A02087E8B0208D68B0208E48B0208FC
:1056500013F029BD10B586B002AC84E806001A46E6
:105660000AAB214605930193099B0093089B10F018
:10567000D1FB06B010BD000038B518BB124B134863
:105680001C681349B4B12268224402606268224453
:105690000A60A26814440F4B00221A8000F038F808
:1056A000054600F033F80C4B1C600C4B1D600C4B96
:1056B000188007E00B4B03600B4B0B600B4B1C6817
:1056C000002CE8D138BD00BFF4ED0024ECED00243F
:1056D000E8ED0024F0ED0024848E02248C8E022458
:1056E000888E02246400009000000090F00000907A
:1056F000044B1B6853F82100034B1B6803EB40006D
:10570000704700BFE8ED0024ECED0024192070473D
:1057100000487047F8ED002410B50A4CFFF73EFE34
:105720002060FFF7F9FE6060FFF7BAFEA060FFF7A8
:10573000F3FDE060FFF7AEFD2061FFF76FFE6061F3
:1057400010BD00BFF8ED002410B5002404600C600B
:1057500014601C6010BD704710B504464FF4AE7164
:105760001FF065FA204610BD10B50446D0F8580168
:1057700000F052F82046BDE8104011F02FB80000AC
:1057800010B50446FEF7FEFC014B2046236010BD19
:10579000C08C020832210022C0E9001270470000CC
:1057A00010B50D4802F0B0FD0A210B4802F01AF9BD
:1057B00078B9094802F0A4F90446074802F057FEF8
:1057C00040F22D10604344BF00F57F40FF300014CD
:1057D00010BD0024F1E700BF5807002410B50D48A4
:1057E00002F092FD0A210B4802F0FCF878B9094852
:1057F00002F086F90446074802F039FE40F22D1007
:10580000604344BF00F57F40FF30001410BD00240A
:10581000F1E700BFBC0700242DE9F3410546FFF77F
:10582000BFFF01466868026812699047FFF7D6FF1C
:1058300001466868026852699047374802F064FD83
:105840000A21354802F0CEF8334802F059F90446EF
:10585000314802F00CFE40F6E443686803FB04F1B3
:105860004FF6FF73B1FBF3F11923C1F53E7191FBC4
:10587000F3F1036819319B6A984728484FF0FF33CA
:1058800001A90022006808F077FE686801990368A2
:1058900000292ED1DB680121984768680021204E3D
:1058A0000368DFF88C801B6A984702F06BF81D4B89
:1058B000044610211F6818601B4803F0F9FFF8B96F
:1058C00001233060686888F80030184B1968036855
:1058D0009B69984798F800301BB13368E41B1C445F
:1058E0003460686831680368DB69984702B0BDE8D6
:1058F000F0819B689847686800210368DB68CBE704
:105900002021094803F0D4FF0028E3D188F80000E3
:10591000064B32681A60DDE7F40600249803002481
:105920001CEE002410EE00240028025814EE00247F
:1059300018EE00247047043870477047C068036849
:10594000DB6A1847A0F10400FFF7F8BFC0680368DE
:105950001B6B1847A0F10400FFF7F8BFC06803688D
:105960005B6B1847A0F10400FFF7F8BFC06803683D
:105970001B6C1847A0F10400FFF7F8BFC06803686C
:10598000DB6B1847A0F10400FFF7F8BFC06803689D
:105990005B6C1847A0F10400FFF7F8BFC06803680C
:1059A0009B6C1847A0F10400FFF7F8BFC0680368BC
:1059B0009B6B1847A0F10400FFF7F8BFC0680368AD
:1059C000DB6C1847A0F10400FFF7F8BF10B50446E0
:1059D00010211FF02CF9204610BDA0F10400F5E7BE
:1059E0000022C1608260024A02603C32426070471D
:1059F000148D0208704700000B46034A0A2100F587
:105A00004C6014F02DBA00BF848D0208034B10B512
:105A100004460360FEF7A8FC204610BD9C8D0208DA
:105A200010B50446FFF7F2FF43F6B43120461FF0ED
:105A3000FEF8204610BD000010B50446FEF780FDBC
:105A4000014B2046236010BD9C8D02083B2830B5D9
:105A500008DD59280DDD6D284FF0FF000BDD002417
:105A6000002502E0FF20FF240546087014701D7019
:105A700030BD0020F7E7A524F2E7FEF76CBC00007C
:105A800010B504460B46064A0A2100F6344014F0CD
:105A9000E7F904F64410BDE8104011F096BE00BFCF
:105AA000848D020838B581F0010304460D4600F6E6
:105AB000441080F8253011F088FE04F5196084F850
:105AC000B559BDE8384011F080BE000037B50D462D
:105AD00004460DF107030DF106020DF105012846FC
