:020000040810E2
:10000000008004106909100801061008090610088C
:10001000110610081906100821061008000000003B
:100020000000000000000000000000002906100889
:100030003706100800000000450610085306100897
:10004000B9091008B9091008B9091008B909100848
:10005000B9091008B9091008B9091008B909100838
:10006000B9091008B9091008B9091008B909100828
:10007000B9091008B9091008B9091008B909100818
:10008000B9091008B9091008B9091008B909100808
:10009000B9091008B9091008B9091008B9091008F8
:1000A000B9091008B9091008B9091008B9091008E8
:1000B000B9091008B9091008B9091008B9091008D8
:1000C000B9091008B9091008B9091008B9091008C8
:1000D000B9091008B9091008B9091008B9091008B8
:1000E000B9091008B909100800000000B909100882
:1000F000B9091008B9091008B9091008B909100898
:10010000B9091008B9091008B9091008B909100887
:10011000B9091008B9091008B9091008B909100877
:10012000B9091008B9091008B9091008B909100867
:10013000B9091008B9091008B9091008B909100857
:10014000B9091008B90910080000000000000000FB
:10015000B9091008B9091008B9091008B909100837
:10016000B9091008B9091008B9091008B909100827
:10017000B9091008B9091008B909100800000000F1
:10018000B9091008B9091008B9091008B909100807
:10019000B9091008B9091008B9091008B9091008F7
:1001A000B9091008B9091008B9091008B9091008E7
:1001B000B9091008B9091008B9091008B9091008D7
:1001C000B9091008B9091008B9091008B9091008C7
:1001D000B9091008B9091008B9091008B9091008B7
:1001E000B9091008B9091008B9091008B9091008A7
:1001F000B9091008B9091008B9091008B909100897
:10020000B9091008B9091008B9091008B909100886
:10021000B9091008B9091008B9091008B909100876
:10022000B9091008B9091008B9091008B909100866
:10023000B9091008B9091008B9091008B909100856
:10024000B9091008B9091008B9091008B909100846
:10025000B9091008B9091008B9091008B909100836
:10026000B9091008B9091008B9091008B909100826
:10027000B9091008B9091008B9091008B909100816
:10028000B9091008B9091008B909100800000000E0
:08029000B9091008B9091008B2
:1002980010B5054C237833B9044B13B10448AFF3B8
:1002A80000800123237010BD14000010000000001E
:1002B8006464100808B5034B1BB103490348AFF346
:1002C800008008BD000000001800001064641008D9
:1002D80080B582B000AF1E4BD3F8E0301C4A43F023
:1002E8000073C2F8E0301A4BD3F8E03003F0007323
:1002F8007B607B68012000F013FF00F09DFF012266
:100308000221002000F01EFF124B1B681B0903F09E
:100318000F03072B08D1104BD3F804310E4A43F0D2
:100328000103C2F8043107E00B4BD3F814310A4A31
:1003380043F00103C2F8143100F058FB00F032F822
:1003480000F04AF800F00AF800F086F900BFFDE76F
:100358000044025800ED00E00064025880B500AF88
:100368000E4B0F4A1A600D4B00225A600B4B0022AD
:100378009A600A4B4FF48042DA60084B00221A61F7
:10038800064B00225A61054803F064FE0346002B21
:1003980001D000F083F800BF80BD00BF300000101E
:1003A8000070005280B483B000AF0A4BD3F8D43049
:1003B800084A43F00103C2F8D430064BD3F8D430CE
:1003C80003F001037B607B6800BF0C37BD465DF816
:1003D800047B70470044025880B588B000AF07F12D
:1003E8000C0300221A605A609A60DA601A61294B7D
:1003F800D3F8E030274A43F00403C2F8E030254B35
:10040800D3F8E03003F00403BB60BB68214BD3F89A
:10041800E030204A43F00803C2F8E0301D4BD3F81F
:10042800E03003F008037B607B681A4BD3F8E030B8
:10043800184A43F48073C2F8E030164BD3F8E03022
:1004480003F480733B603B6801224FF4004112487B
:1004580000F04CFE4FF48073FB6000233B610123E6
:100468007B6107F10C0319460B4800F08FFC4FF431
:100478000043FB6001233B6101237B610023BB61D7
:1004880007F10C031946044800F080FC00BF203730
:10049800BD4680BD004402580020025880B400AF19
:1004A80072B600BF00BFFDE780B483B000AF0A4B4F
:1004B800D3F8F430084A43F00203C2F8F430064B8C
:1004C800D3F8F43003F002037B607B6800BF0C377D
:1004D800BD465DF8047B70470044025880B5BEB045
:1004E80000AF786007F1E40300221A605A609A604E
:1004F800DA601A6107F11803C8220021184605F0CE
:1005080080FF7B681B68384A934269D14FF4803278
:100518004FF00003C7E906230023FB6607F1180321
:10052800184601F059F80346002B01D0FFF7B6FF33
:100538002E4BD3F8D4302D4A43F48033C2F8D4304C
:100548002A4BD3F8D43003F480337B617B69274B83
:10055800D3F8E030254A43F00403C2F8E030234BD7
:10056800D3F8E03003F004033B613B691F4BD3F839
:10057800E0301E4A43F00803C2F8E0301B4BD3F8C2
:10058800E03003F00803FB60FB684FF4F853C7F84A
:10059800E4300223C7F8E8300023C7F8EC3003231F
:1005A800C7F8F0300C23C7F8F43007F1E403194614
:1005B8000F4800F0EBFB0423C7F8E4300223C7F828
:1005C800E8300023C7F8EC300323C7F8F0300C23D9
:1005D800C7F8F43007F1E4031946064800F0D6FBE3
:1005E80000BFF837BD4680BD007000520044025875
:1005F80000080258000C025880B400AF00BFFDE7A5
:1006080080B400AF00BFFDE780B400AF00BFFDE7D6
:1006180080B400AF00BFFDE780B400AF00BFFDE7C6
:1006280080B400AF00BFBD465DF8047B704780B45E
:1006380000AF00BFBD465DF8047B704780B400AFD3
:1006480000BFBD465DF8047B704780B500AF00F081
:1006580061FA00BF80BD000080B500AF04490548BD
:1006680005F0C0FE03461A46034B1A7000BF80BD52
:10067800B00000107C641008AC00001080B582B097
:1006880000AF0023FB7100F079F80346012B01D07D
:10069800022312E00B4803F0DDFC0346FB71FB79F3
:1006A800002B09D14FF48041064804F099FB03461A
:1006B800002B01D00123FB71FB7918460837BD4692
:1006C80080BD00BF3000001080B588B002AFF86070
:1006D800B9607A603B600023FB753B6800937B68D8
:1006E800BA68F968064803F0D5FD0346002B01D027
:1006F8000123FB75FB7D18461837BD4680BD00BF3A
:100708003000001080B588B002AFF860B9607A6038
:100718003B600023FB753B6800937B68BA68F96807
:10072800064803F041FF0346002B01D00123FB7567
:10073800FB7D18461837BD4680BD00BF300000104D
:1007480080B500AF054804F05DFC0346042B14BFD8
:1007580001230023DBB2184680BD00BF3000001023
:1007680080B582B000AF78607968034804F00CFB6C
:1007780000BF0837BD4680BD3000001080B483B08C
:1007880000AF0123FB71FB79DBB218460C37BD467D
:100798005DF8047B7047000080B582B000AF034667
:1007A800FB710B4B01221A70FFF7CAFF0346002B9F
:1007B80007D1074B1B78DBB223F00103DAB2044BF5
:1007C8001A70034B1B78DBB218460837BD4680BD4C
:1007D8000000001080B582B000AF0346FB710B4BE0
:1007E80001221A70FFF74AFF0346002B07D1FB7955
:1007F8001846FFF7D1FF03461A46044B1A70034BFD
:100808001B78DBB218460837BD4680BD00000010D3
:1008180080B582B000AF0346FB71FB791846FFF73D
:10082800BBFF034618460837BD4680BD80B586B075
:1008380000AFB9607A603B600346FB730123FB7528
:100848004FF0FF333A687968B868FFF73DFF034611
:10085800002B07D100BFFFF773FF0346002BFAD127
:100868000023FB75FB7D18461837BD4680BD80B553
:1008780086B000AFB9607A603B600346FB73012322
:10088800FB754FF0FF333A687968B868FFF73AFFAD
:100898000346002B07D100BFFFF752FF0346002B8A
:1008A800FAD10023FB75FB7D18461837BD4680BD7D
:1008B80080B58CB000AF03463A60FB710B46BB7144
:1008C800012387F82F30254B1B78DBB203F0010397
:1008D800002B01D003233CE0BB79032B34D801A2C1
:1008E80052F823F0FD081008050910081D09100822
:1008F80037091008002387F82F3028E007F108038C
:100908001846FFF72DFF3A6A3B681A60002387F8FC
:100918002F301CE007F108031846FFF721FF7B6A18
:100928009AB23B681A80002387F82F300FE007F14E
:1009380008031846FFF714FF7B6A5A0A3B681A60D7
:10094800002387F82F3002E0042387F82F3097F828
:100958002F3018463037BD4680BD00BF000000105C
:10096800DFF834D000F026F80C480D490D4A002372
:1009780002E0D458C4500433C4188C42F9D30A4A4C
:100988000A4C002301E013600432A242FBD305F0B5
:1009980041FDFFF79DFC7047008004100000001027
:1009A80014000010A864100814000010C4000010FF
:1009B800FEE7000080B400AF0B4BD3F888300A4A3A
:1009C80043F47003C2F88830074B1B69064A43F0AA
:1009D80010031361044B4FF001629A6000BFBD46DB
:1009E8005DF8047B704700BF00ED00E080B582B081
:1009F80000AF284BD3F8D830264A43F48043C2F8D6
:100A0800D830244BD3F8D83003F480433B603B689C
:100A1800214B1B6823F47F2323F470631E4A43F49D
:100A2800014313601C4B1B681B4A43F0010313600E
:100A3800032000F065F900F00DFC0246154B9B6998
:100A48001B0A03F00F031549CB5C03F01F0322FABE
:100A580003F37B600F4B9B6903F00F030F4AD35CD2
:100A680003F01F037A6822FA03F30D4A13600C4B54
:100A78001B680C4A1360002000F016F80346002B90
:100A880001D0012302E0FFF70FFD002318460837C5
:100A9800BD4680BD004402580044024090641008DE
:100AA800080000100400001080B582B000AF786024
:100AB800154B1B78002B01D1012321E0134B1A6839
:100AC800114B1B7819464FF47A73B3FBF1F3B2FB61
:100AD800F3F3184600F039F90346002B01D001233F
:100AE8000EE07B680F2B0AD8002279684FF0FF30A0
:100AF80000F011F9064A7B681360002300E0012327
:100B080018460837BD4680BD1000001004000010CC
:100B18000C00001080B400AF064B1B781A46064B39
:100B28001B681344044A136000BFBD465DF8047B8C
:100B3800704700BF10000010B400001080B400AF70
:100B4800034B1B681846BD465DF8047B704700BF21
:100B5800B400001080B584B000AF7860FFF7EEFFF6
:100B6800B8607B68FB60FB68B3F1FF3F05D00A4BB8
:100B78001B781A46FB681344FB6000BFFFF7DEFFD3
:100B88000246BB68D31AFA689A42F7D800BF00BF7A
:100B98001037BD4680BD00BF1000001080B485B07E
:100BA80000AF78607B6803F00703FB600C4BDB68E1
:100BB800BB60BA684FF6FF031340BB60FB681A02BC
:100BC800BB68134343F0BF6343F40033BB60044A7C
:100BD800BB68D36000BF1437BD465DF8047B70471F
:100BE80000ED00E080B400AF044BDB681B0A03F0A3
:100BF80007031846BD465DF8047B704700ED00E02A
:100C080080B483B000AF03463960FB80B7F9063083
:100C1800002B0ADB3B68DAB20C49B7F9063012013F
:100C2800D2B20B4483F800230AE03B68DAB20849E1
:100C3800FB8803F00F03043B1201D2B20B441A766F
:100C480000BF0C37BD465DF8047B704700E100E04B
:100C580000ED00E080B489B000AFF860B9607A6058
:100C6800FB6803F00703FB61FB69C3F10703042B6F
:100C780028BF0423BB61FB690433062B02D9FB6937
:100C8800033B00E000237B614FF0FF32BB6902FAAF
:100C980003F3DA43BB681A407B699A404FF0FF318F
:100CA8007B6901FA03F3D9437B680B401343184669
:100CB8002437BD465DF8047B7047000080B582B0DC
:100CC80000AF78607B68013BB3F1807F01D30123DB
:100CD8000FE00A4A7B68013B53600F214FF0FF3059
:100CE800FFF78EFF054B00229A60044B07221A601B
:100CF800002318460837BD4680BD00BF10E000E05D
:100D080080B582B000AF78607868FFF747FF00BF12
:100D18000837BD4680BD80B586B000AF0346B960D0
:100D28007A60FB81FFF75EFF78617A68B968786955
:100D3800FFF790FF0246B7F90E3011461846FFF745
:100D48005FFF00BF1837BD4680BD80B582B000AFD9
:100D580078607868FFF7B2FF034618460837BD4643
:100D680080BD000080B400AF074B1B681B0903F06F
:100D78000F03072B01D1032300E001231846BD46CA
:100D88005DF8047B704700BF00ED00E080B489B0D7
:100D980000AF786039600023FB61894B7B6194E187
:100DA8003B681A680121FB6901FA03F313403B61B0
:100DB8003B69002B00F086813B685B6803F0030306
:100DC800012B05D03B685B6803F00303022B30D18D
:100DD8007B689B68BB61FB695B00032202FA03F333
:100DE800DB43BA691340BB613B68DA68FB695B00A7
:100DF80002FA03F3BA691343BB617B68BA699A6064
:100E08007B685B68BB610122FB6902FA03F3DB4381
:100E1800BA691340BB613B685B681B0903F00102B8
:100E2800FB6902FA03F3BA691343BB617B68BA69C9
:100E38005A603B685B6803F00303032B17D07B6899
:100E4800DB68BB61FB695B00032202FA03F3DB4347
:100E5800BA691340BB613B689A68FB695B0002FA98
:100E680003F3BA691343BB617B68BA69DA603B680C
:100E78005B6803F00303022B23D1FB69DA087B6864
:100E8800083253F82230BB61FB6903F007039B006B
:100E98000F2202FA03F3DB43BA691340BB613B68D4
:100EA8001A69FB6903F007039B0002FA03F3BA69A6
:100EB8001343BB61FB69DA087B680832B96943F8F8
:100EC80022107B681B68BB61FB695B00032202FA86
:100ED80003F3DB43BA691340BB613B685B6803F00B
:100EE8000302FB695B0002FA03F3BA691343BB61AF
:100EF8007B68BA691A603B685B6803F44033002B6F
:100F080000F0E0802F4BD3F8F4302E4A43F0020370
:100F1800C2F8F4302B4BD3F8F43003F00203FB6033
:100F2800FB68294AFB699B08023352F82330BB61EE
:100F3800FB6903F003039B000F2202FA03F3DB4370
:100F4800BA691340BB617B68204A934252D07B68E0
:100F58001F4A934231D07B681E4A93422BD07B684C
:100F68001D4A934225D07B681C4A93421FD07B6858
:100F78001B4A934219D07B681A4A934213D07B6864
:100F8800194A93420DD07B68184A934207D07B6870
:100F9800174A934201D109232DE00A232BE00823A5
:100FA80029E0072327E0062325E0052323E004237F
:100FB80021E003231FE002231DE001231BE000BF03
:100FC800C0000058004402580004005800000258AD
:100FD8000004025800080258000C02580010025879
:100FE8000014025800180258001C02580020025829
:100FF800002402580023FA6902F003029200934089
:10100800BA691343BB613849FB699B080233BA6963
:1010180041F823204FF0B0431B68BB613B69DB43B9
:10102800BA691340BB613B685B6803F48013002B0B
:1010380003D0BA693B691343BB614FF0B042BB6947
:1010480013604FF0B0435B68BB613B69DB43BA692F
:101058001340BB613B685B6803F40013002B03D0AB
:10106800BA693B691343BB614FF0B042BB69536037
:101078007B695B68BB613B69DB43BA691340BB6151
:101088003B685B6803F40033002B03D0BA693B6903
:101098001343BB617B69BA695A607B691B68BB6192
:1010A8003B69DB43BA691340BB613B685B6803F487
:1010B8008033002B03D0BA693B691343BB617B695A
:1010C800BA691A60FB690133FB613B681A68FB69FE
:1010D80022FA03F3002B7FF463AE00BF00BF24376E
:1010E800BD465DF8047B70470004005880B483B0A7
:1010F80000AF78600B467B8013467B707B78002BB3
:1011080003D07A887B689A6103E07B881A047B683D
:101118009A6100BF0C37BD465DF8047B704700003C
:1011280080B483B000AF7860054B1A6804497B68C7
:1011380013430B6000BF0C37BD465DF8047B704756
:101148001065025880B584B000AFF8600B467A602D
:10115800FB72374B1B6823F001023549FB681343C8
:101168000B607B68002B23D1FFF7FCFD0346032BA4
:1011780058D12F4B1B692E4A23F0010313612D4BC5
:101188001B692C4A43F004031361BFF34F8F00BF60
:10119800BFF36F8F00BFFB7A012B01D130BF00E096
:1011A80020BF244B1B69234A23F0040313613CE04E
:1011B8007B68012B23D1FFF7D5FD0346012B33D1E3
:1011C8001B4B5B691A4A23F002035361194B1B69D5
:1011D800184A43F004031361BFF34F8F00BFBFF3F6
:1011E8006F8F00BFFB7A012B01D130BF00E020BF19
:1011F800104B1B690F4A23F00403136115E0FFF736
:10120800B1FD0346032B06D1094B1B69084A23F09D
:101218000403136109E0064B5B69054A23F00403E4
:10122800536102E000BF00E000BF1037BD4680BD3B
:101238000048025800ED00E080B500AFFFF792FDCE
:101248000346032B01D120BF01E040BF20BF00BFF0
:1012580080BD000080B489B000AFB34B1B6903F0B8
:101268003803182B00F2558101A252F823F000BF71
:10127800DD1210081B1510081B1510081B15100887
:101288001B1510081B1510081B1510081B15100836
:10129800031310081B1510081B1510081B15100840
:1012A8001B1510081B1510081B1510081B15100816
:1012B800091310081B1510081B1510081B1510081A
:1012C8001B1510081B1510081B1510081B151008F6
:1012D8000F131008944B1B6803F02003002B09D050
:1012E800914B1B68DB0803F00303904A22FA03F3CF
:1012F800BB6111E18D4BBB610EE18D4BBB610BE115
:101308008C4BBB6108E1884B9B6A03F003037B614C
:10131800854B9B6A1B0903F03F033B61824BDB6AE9
:1013280003F00103FB60804B5B6BDB08C3F30C032A
:10133800FA6802FB03F307EE903AF8EE677AC7ED16
:10134800027A3B69002B00F0E1807B69022B00F0F8
:1013580083807B69022B00F2A1807B69002B03D07C
:101368007B69012B56D099E06F4B1B6803F0200373
:10137800002B2DD06C4B1B68DB0803F003036B4A72
:1013880022FA03F37B607B6807EE903AF8EE676A0F
:101398003B6907EE903AF8EE677A86EEA77A624BD9
:1013A8001B6BC3F3080307EE903AF8EE676A97EDF4
:1013B800026ADFED615AC6EE257A76EEA77AF7EE75
:1013C800006A77EEA67A67EE277AC7ED077A87E094
:1013D8003B6907EE903AF8EE677ADFED586A86EED9
:1013E800A77A514B1B6BC3F3080307EE903AF8EE4C
:1013F800676A97ED026ADFED505AC6EE257A76EEF7
:10140800A77AF7EE006A77EEA67A67EE277AC7ED35
:10141800077A65E03B6907EE903AF8EE677ADFED08
:10142800486A86EEA77A404B1B6BC3F3080307EEA6
:10143800903AF8EE676A97ED026ADFED3F5AC6EE1A
:10144800257A76EEA77AF7EE006A77EEA67A67EE47
:10145800277AC7ED077A43E03B6907EE903AF8EE42
:10146800677ADFED386A86EEA77A2F4B1B6BC3F3DA
:10147800080307EE903AF8EE676A97ED026ADFED27
:101488002E5AC6EE257A76EEA77AF7EE006A77EE40
:10149800A67A67EE277AC7ED077A21E03B6907EE5F
:1014A800903AF8EE677ADFED266A86EEA77A1E4B49
:1014B8001B6BC3F3080307EE903AF8EE676A97EDE3
:1014C800026ADFED1D5AC6EE257A76EEA77AF7EEA8
:1014D800006A77EEA67A67EE277AC7ED077A00BF2B
:1014E800114B1B6B5B0A03F07F0301333B603B68C6
:1014F80007EE903AB8EE677AD7ED076AC6EE877AB4
:10150800FCEEE77A17EE903ABB6105E00023BB6179
:1015180002E0074BBB6100BFBB6918462437BD46D4
:101528005DF8047B704700BF004402580090D00368
:1015380000093D0040787D01000000460024744CFD
:101548000024744A20BCBE4B80B582B000AFFFF7C0
:1015580081FE0246114B9B691B0A03F00F031049D9
:10156800CB5C03F01F0322FA03F37B600B4B9B69F0
:1015780003F00F030A4AD35C03F01F037A6822FAC8
:1015880003F3084A1360074B1B68074A1360054BAF
:101598001B6818460837BD4680BD00BF0044025886
:1015A80090641008080000100400001080B500AF17
:1015B800FFF7CAFF0246064BDB691B0903F0070366
:1015C8000449CB5C03F01F0322FA03F3184680BDDD
:1015D80000440258906410082DE9B04FCCB000AF19
:1015E800C7F81C01002387F82F31002387F82E3114
:1015F800D7F81C31D3E9002302F00064002554EA2F
:10160800050349D0D7F81C31DB6EB3F5401F2FD046
:10161800B3F5401F28D8B3F5001F1AD0B3F5001F43
:1016280022D8002B03D0B3F5801F07D01CE0B84B9D
:10163800DB6AB74A43F40033D3621AE0D7F81C31A7
:1016480008330221184602F0A1FB034687F82F3120
:101658000FE0D7F81C3128330221184602F048FC65
:10166800034687F82F3104E0012387F82F3100E083
:1016780000BF97F82F31002B0AD1A54B1B6D23F41F
:101688004011D7F81C31DB6EA14A0B43136503E008
:1016980097F82F3187F82E31D7F81C31D3E900237A
:1016A80002F480784FF0000958EA090347D0D7F8C8
:1016B8001C31DB6D042B2AD801A252F823F000BF9D
:1016C800DD161008EB161008011710081F17100870
:1016D8001F1710088E4BDB6A8D4A43F40033D36220
:1016E8001AE0D7F81C3108330021184602F04EFBE7
:1016F800034687F82F310FE0D7F81C312833002133
:10170800184602F0F5FB034687F82F3104E0012361
:1017180087F82F3100E000BF97F82F31002B0AD14E
:101728007B4B1B6D23F00701D7F81C31DB6D784A22
:101738000B43136503E097F82F3187F82E31D7F85C
:101748001C31D3E9002302F4007A4FF0000B5AEA67
:101758000B034CD0D7F81C311B6EB3F5807F30D00B
:10176800B3F5807F29D8C02B2DD0C02B25D8802B4E
:1017780018D0802B21D8002B02D0402B07D01CE09A
:10178800634BDB6A624A43F40033D3621CE0D7F848
:101798001C3108330021184602F0F8FA034687F88E
:1017A8002F3111E0D7F81C3128330021184602F0F8
:1017B8009FFB034687F82F3106E0012387F82F3176
:1017C80002E000BF00E000BF97F82F31002B0AD1DC
:1017D8004F4B1B6D23F4E071D7F81C311B6E4C4A3C
:1017E8000B43136503E097F82F3187F82E31D7F8AC
:1017F8001C31D3E9002302F48063C7F810310023B9
:10180800C7F81431D7E944120B46134353D0D7F81D
:101818001C31D3F8AC30B3F5000F35D0B3F5000F59
:101828002ED8B3F5C00F31D0B3F5C00F28D8B3F513
:10183800800F1AD0B3F5800F22D8002B03D0B3F550
:10184800001F07D01CE0324BDB6A314A43F40033F7
:10185800D3621CE0D7F81C3108330021184602F087
:1018680095FA034687F82F3111E0D7F81C31283351
:101878000021184602F03CFB034687F82F3106E0AA
:10188800012387F82F3102E000BF00E000BF97F87E
:101898002F31002B0BD11E4B9B6D23F46001D7F821
:1018A8001C31D3F8AC301A4A0B43936503E097F820
:1018B8002F3187F82E31D7F81C31D3E9002302F4F1
:1018C8000063C7F808310023C7F80C31D7E9421282
:1018D8000B46134356D0D7F81C31D3F8B030B3F1C8
:1018E800806F38D0B3F1806F31D8B3F1407F34D0F6
:1018F800B3F1407F2BD8B3F1007F1DD0B3F1007F47
:1019080025D8002B06D0B3F1807F0AD01FE000BF96
:1019180000440258A24BDB6AA14A43F40033D36265
:101928001CE0D7F81C3108330021184602F02EFAC3
:10193800034687F82F3111E0D7F81C3128330021EE
:10194800184602F0D5FA034687F82F3106E001233E
:1019580087F82F3102E000BF00E000BF97F82F3171
:10196800002B0BD18E4B9B6D23F0E061D7F81C3117
:10197800D3F8B0308A4A0B43936503E097F82F31C8
:1019880087F82E31D7F81C31D3E9002302F0007311
:10199800C7F800310023C7F80431D7E940120B46D5
:1019A80013433AD0D7F81C31DB6C302B1FD0302BC7
:1019B80019D8202B0CD0202B15D8002B19D0102B80
:1019C80011D1774BDB6A764A43F40033D36211E0D6
:1019D800D7F81C3108330221184602F0D7F903461C
:1019E80087F82F3106E0012387F82F3102E000BF86
:1019F80000E000BF97F82F31002B0AD1684BDB6C51
:101A080023F03001D7F81C31DB6C654A0B43D364F3
:101A180003E097F82F3187F82E31D7F81C31D3E936
:101A2800002302F48053C7F8F8300023C7F8FC30CD
:101A3800D7E93E120B46134351D0D7F81C315B6EE1
:101A4800B3F5804F35D0B3F5804F2ED8B3F5405F4E
:101A580031D0B3F5405F28D8B3F5005F1AD0B3F59D
:101A6800005F22D8002B03D0B3F5805F07D01CE0BD
:101A78004B4BDB6A4A4A43F40033D3621CE0D7F885
:101A88001C3108330021184602F080F9034687F814
:101A98002F3111E0D7F81C3128330021184602F005
:101AA80027FA034687F82F3106E0012387F82F31FC
:101AB80002E000BF00E000BF97F82F31002B0AD1E9
:101AC800374B1B6D23F4E041D7F81C315B6E344A69
:101AD8000B43136503E097F82F3187F82E31D7F8B9
:101AE8001C31D3E9002302F40053C7F8F030002377
:101AF800C7F8F430D7E93C120B46134356D0D7F851
:101B08001C319B6EB3F5A02F33D0B3F5A02F2CD882
:101B1800B3F5802F2FD0B3F5802F26D8B3F5403FEB
:101B28002BD0B3F5403F20D8B3F5003F12D0B3F522
:101B3800003F1AD8002B22D0B3F5803F15D1D7F833
:101B48001C3108330121184602F020F9034687F8B2
:101B58002F3115E0D7F81C3128330121184602F03F
:101B6800C7F9034687F82F310AE0012387F82F3198
:101B780006E000BF04E000BF02E000BF00E000BFD5
:101B880097F82F31002B0DD1054B1B6D23F4E02165
:101B9800D7F81C319B6E024A0B43136506E000BF61
:101BA8000044025897F82F3187F82E31D7F81C31A6
:101BB800D3E9002302F48043C7F8E8300023C7F8CC
:101BC800EC30D7E93A120B46134355D0D7F81C31FD
:101BD800D3F8B430B3F1A04F33D0B3F1A04F2CD821
:101BE800B3F1804F2FD0B3F1804F26D8B3F1405FC7
:101BF8002BD0B3F1405F20D8B3F1005F12D0B3F11E
:101C0800005F1AD8002B22D0B3F1805F15D1D7F826
:101C18001C3108330121184602F0B8F8034687F84A
:101C28002F3115E0D7F81C3128330121184602F06E
:101C38005FF9034687F82F310AE0012387F82F312F
:101C480006E000BF04E000BF02E000BF00E000BF04
:101C580097F82F31002B0BD1B74B9B6D23F0E04148
:101C6800D7F81C31D3F8B430B34A0B43936503E07B
:101C780097F82F3187F82E31D7F81C31D3E9002394
:101C880002F08063C7F8E0300023C7F8E430D7E9F2
:101C980038120B4613432AD0D7F81C311B6D002B82
:101CA80011D0B3F5807F0AD1D7F81C310833012150
:101CB800184602F06BF8034687F82F3104E0012339
:101CC80087F82F3100E000BF97F82F31002B0AD199
:101CD800994BDB6C23F48071D7F81C311B6D964A45
:101CE8000B43D36403E097F82F3187F82E31D7F8E8
:101CF8001C31D3E9002302F40043C7F8D83000238D
:101D0800C7F8DC30D7E936120B46134337D0D7F87B
:101D18001C315B6FB3F1005F0ED0B3F1005F16D8D2
:101D2800002B18D0B3F1805F11D1834BDB6A824A54
:101D380043F40033D3620FE0D7F81C310833012194
:101D4800184602F023F8034687F82F3104E00123F0
:101D580087F82F3100E000BF97F82F31002B0AD108
:101D6800754B1B6D23F04051D7F81C315B6F724ADD
:101D78000B43136503E097F82F3187F82E31D7F816
:101D88001C31D3E9002302F08073C7F8D030002358
:101D9800C7F8D430D7E934120B4613433AD0D7F8F2
:101DA8001C319B6C032B1DD801A252F823F000BFF5
:101DB800F51D1008C91D1008D71D1008F51D1008BD
:101DC8005D4BDB6A5C4A43F40033D3620FE0D7F81B
:101DD8001C3108330221184601F0D8FF034687F862
:101DE8002F3104E0012387F82F3100E000BF97F876
:101DF8002F31002B0AD1504BDB6C23F00301D7F8AD
:101E08001C319B6C4C4A0B43D36403E097F82F3189
:101E180087F82E31D7F81C31D3E9002302F4800368
:101E2800C7F8C8300023C7F8CC30D7E932120B46C0
:101E3800134300F0A080414B1B68404A43F4807371
:101E48001360FEF77BFEC7F828010BE0FEF776FE6D
:101E58000246D7F82831D31A642B03D9032387F80D
:101E68002F3105E0354B1B6803F48073002BEDD050
:101E780097F82F31002B7AD12F4B1A6FD7F81C31D6
:101E8800D3F8B830534003F44073002B15D02A4BD5
:101E98001B6F23F44073C7F82431274B1B6F264A66
:101EA80043F480331367244B1B6F234A23F4803396
:101EB8001367214AD7F824311367D7F81C31D3F8B0
:101EC800B830B3F5807F18D1FEF738FEC7F828017F
:101ED8000DE0FEF733FE0246D7F82831D21A41F258
:101EE80088339A4203D9032387F82F3105E0124B30
:101EF8001B6F03F00203002BEBD097F82F31002B58
:101F080030D1D7F81C31D3F8B83003F44073B3F5A7
:101F1800407F15D1084B1B6923F47C51D7F81C313D
:101F2800D3F8B8301B0923F07F4323F03003024A6B
:101F38000B4313610AE000BF0044025800480258EE
:101F4800D44B1B69D34A23F47C531361D14B196FCB
:101F5800D7F81C31D3F8B830C3F30B03CD4A0B4381
:101F6800136708E097F82F3187F82E3103E097F8C8
:101F78002F3187F82E31D7F81C31D3E9002302F02E
:101F88000103C7F8C0300023C7F8C430D7E93012BE
:101F98000B46134300F08B80D7F81C31D3F8803000
:101FA800282B6BD801A252F823F000BF8D2010080F
:101FB8008520100885201008852010088520100825
:101FC8008520100885201008852010085920100841
:101FD8008520100885201008852010088520100805
:101FE8008520100885201008852010086F2010080B
:101FF80085201008852010088520100885201008E5
:102008008520100885201008852010088D201008CC
:1020180085201008852010088520100885201008C4
:102028008520100885201008852010088D201008AC
:1020380085201008852010088520100885201008A4
:102048008520100885201008852010088D2010088C
:10205800D7F81C3108330121184601F097FE0346D2
:1020680087F82F310FE0D7F81C31283301211846A3
:1020780001F03EFF034687F82F3104E0012387F87B
:102088002F3100E000BF97F82F31002B0BD1814B87
:102098005B6D23F03801D7F81C31D3F880307D4AC6
:1020A8000B43536503E097F82F3187F82E31D7F8A3
:1020B8001C31D3E9002302F00203C7F8B83000232B
:1020C800C7F8BC30D7E92E120B46134342D0D7F8D5
:1020D8001C31DB6F052B25D801A252F823F000BF75
:1020E8003521100801211008172110083521100882
:1020F8003521100835211008D7F81C310833012183
:10210800184601F043FE034687F82F310FE0D7F851
:102118001C3128330121184601F0EAFE034687F8EE
:102128002F3104E0012387F82F3100E000BF97F832
:102138002F31002B0AD1574B5B6D23F00701D7F8DD
:102148001C31DB6F534A0B43536503E097F82F317B
:1021580087F82E31D7F81C31D3E9002302F00403A5
:10216800C7F8B0300023C7F8B430D7E92C120B46B3
:10217800134344D0D7F81C31D3F89830052B25D811
:1021880001A252F823F000BFDD211008A921100890
:10219800BF211008DD211008DD211008DD211008FD
:1021A800D7F81C3108330121184601F0EFFD03462A
:1021B80087F82F310FE0D7F81C3128330121184652
:1021C80001F096FE034687F82F3104E0012387F8D3
:1021D8002F3100E000BF97F82F31002B0BD12D4B8A
:1021E8009B6D23F00701D7F81C31D3F89830294AA2
:1021F8000B43936503E097F82F3187F82E31D7F812
:102208001C31D3E9002302F02003C7F8A8300023CB
:10221800C7F8AC30D7E92A120B46134357D0D7F882
:102228001C31D3F89430B3F1A04F35D0B3F1A04F9F
:102238002CD8B3F1804F31D0B3F1804F26D8B3F109
:10224800405F2DD0B3F1405F20D8B3F1005F12D0CA
:10225800B3F1005F1AD8002B24D0B3F1805F15D1F9
:10226800D7F81C3108330021184601F08FFD0346CA
:1022780087F82F3117E0D7F81C3128330221184688
:1022880001F036FE034687F82F310CE0012387F86A
:102298002F3108E00044025800BF04E000BF02E00C
:1022A80000BF00E000BF97F82F31002B0BD1C24BC5
:1022B8005B6D23F0E041D7F81C31D3F89430BE4A67
:1022C8000B43536503E097F82F3187F82E31D7F881
:1022D8001C31D3E9002302F04003C7F8A0300023E3
:1022E800C7F8A430D7E928120B46134355D0D7F8BE
:1022F8001C31D3F8A030B3F5A05F33D0B3F5A05F9D
:102308002CD8B3F5805F2FD0B3F5805F26D8B3F50E
:10231800406F2BD0B3F5406F20D8B3F5006F12D0C3
:10232800B3F5006F1AD8002B22D0B3F5806F15D102
:10233800D7F81C3108330021184601F027FD034661
:1023480087F82F3115E0D7F81C31283302211846B9
:1023580001F0CEFD034687F82F310AE0012387F804
:102368002F3106E000BF04E000BF02E000BF00E03C
:1023780000BF97F82F31002B0BD18F4B9B6D23F4A7
:10238800E051D7F81C31D3F8A0308B4A0B43936542
:1023980003E097F82F3187F82E31D7F81C31D3E9AD
:1023A800002302F08003C7F898300023C7F89C3058
:1023B800D7E926120B46134355D0D7F81C31D3F86A
:1023C800A430B3F5204F33D0B3F5204F2CD8B3F554
:1023D800004F2FD0B3F5004F26D8B3F5C04F2BD000
:1023E800B3F5C04F20D8B3F5804F12D0B3F5804F66
:1023F8001AD8002B22D0B3F5005F15D1D7F81C31BD
:1024080008330021184601F0C1FC034687F82F3134
:1024180015E0D7F81C3128330221184601F068FD71
:10242800034687F82F310AE0012387F82F3106E0A9
:1024380000BF04E000BF02E000BF00E000BF97F863
:102448002F31002B0BD15C4B9B6D23F46041D7F8E7
:102458001C31D3F8A430584A0B43936503E097F82E
:102468002F3187F82E31D7F81C31D3E9002302F039
:102478000803C7F890300023C7F89430D7E924122E
:102488000B4613431ED0D7F81C31D3F88830B3F568
:10249800805F0CD1D7F81C3128330221184601F08F
:1024A80027FD0346002B02D0012387F82E31424B2B
:1024B8005B6D23F44051D7F81C31D3F888303E4A7D
:1024C8000B435365D7F81C31D3E9002302F01003FE
:1024D800C7F888300023C7F88C30D7E922120B469A
:1024E80013431ED0D7F81C31D3F89C30B3F5807F46
:1024F8000CD1D7F81C3128330221184601F0F8FC1A
:102508000346002B02D0012387F82E312A4B9B6DFE
:1025180023F44071D7F81C31D3F89C30264A0B437A
:102528009365D7F81C31D3E9002302F40023C7F8D8
:1025380080300023C7F88430D7E920120B461343B4
:1025480040D0D7F81C31D3F8A830B3F5003F22D0DB
:10255800B3F5003F1BD8002B03D0B3F5803F0BD059
:1025680015E0D7F81C3108330021184601F00EFC9D
:10257800034687F82F310FE0D7F81C3128330221A2
:10258800184601F0B5FC034687F82F3104E0012313
:1025980087F82F3100E000BF97F82F31002B0DD1BD
:1025A800054B9B6D23F44031D7F81C31D3F8A83084
:1025B800014A0B43936505E00044025897F82F3110
:1025C80087F82E31D7F81C31D3E9002302F4802391
:1025D800BB670023FB67D7E91E120B4613433BD0AA
:1025E800D7F81C31D3F88C30B3F5401F1FD0B3F5A2
:1025F800401F18D8B3F5801F03D0B3F5001F07D0CC
:1026080011E0644BDB6A634A43F40033D3620FE0A2
:10261800D7F81C3128330121184601F069FC03461C
:1026280087F82F3104E0012387F82F3100E000BF3D
:1026380097F82F31002B0BD1564B5B6D23F44011CB
:10264800D7F81C31D3F88C30524A0B43536503E05A
:1026580097F82F3187F82E31D7F81C31D3E90023AA
:1026680002F480333B6700237B67D7E91C120B46D3
:10267800134331D0D7F81C315B6D002B03D0B3F571
:10268800803F07D011E0434BDB6A424A43F40033F2
:10269800D3620EE0D7F81C3108330221184601F046
:1026A80075FB034687F82F3103E0012387F82F31A4
:1026B80000BF97F82F31002B0AD1364BDB6C23F47F
:1026C8008031D7F81C315B6D324A0B43D36403E089
:1026D80097F82F3187F82E31D7F81C31D3E900232A
:1026E80002F00053BB660023FB66D7E91A120B46BB
:1026F80013430CD0D7F81C3128330221184601F0B7
:10270800F7FB0346002B02D0012387F82E31D7F8B8
:102718001C31D3E9002302F400333B6600237B66B7
:10272800D7E918120B4613433AD0D7F81C31D3F81F
:102738008430B3F5407F18D0B3F5407F11D8B3F596
:10274800007F14D0B3F5007F0BD8002B11D0B3F560
:10275800807F06D10F4BDB6A0E4A43F40033D36205
:1027680008E0012387F82F3104E000BF02E000BF32
:1027780000E000BF97F82F31002B0DD1054B5B6DA2
:1027880023F44071D7F81C31D3F88430014A0B4345
:10279800536505E00044025897F82F3187F82E3129
:1027A800D7F81C31D3E9002302F48013BB6500235A
:1027B800FB65D7E916120B46134309D0AA4B1B6DCC
:1027C80023F00041D7F81C319B6FA74A0B431365D0
:1027D800D7F81C31D3E9002302F080533B6500236E
:1027E8007B65D7E914120B4613430AD09E4B1B692D
:1027F80023F48041D7F81C31D3F8BC309A4A0B43F4
:102808001361D7F81C31D3E9002302F40013BB6429
:102818000023FB64D7E912120B46134309D0924BED
:102828001B6D23F08071D7F81C311B6F8E4A0B4348
:102838001365D7F81C31D3E9002302F080433B64C9
:1028480000237B64D7E910120B4613430ED0864B46
:102858001B69854A23F400431361834B1969D7F830
:102868001C31D3F8C030804A0B431361D7F81C31B0
:10287800D3E9002302F00043BB630023FB63D7E9DD
:102888000E120B46134309D0774BDB6C23F04051F3
:10289800D7F81C319B6D744A0B43D364D7F81C31AD
:1028A800D3E9002302F400033B6300237B63D7E9E9
:1028B8000C120B4613430AD06B4B5B6D23F440019B
:1028C800D7F81C31D3F89030674A0B435365D7F8D3
:1028D8001C31D3E900230021B96203F00103FB6234
:1028E800D7E90A120B46134311D0D7F81C31083325
:1028F8000021184601F04AFA034687F82F3197F865
:102908002F31002B03D097F82F3187F82E31D7F8C5
:102918001C31D3E900230021396203F002037B62F2
:10292800D7E908120B46134311D0D7F81C310833E6
:102938000121184601F02AFA034687F82F3197F843
:102948002F31002B03D097F82F3187F82E31D7F885
:102958001C31D3E900230021B96103F00403FB61B2
:10296800D7E906120B46134311D0D7F81C310833A8
:102978000221184601F00AFA034687F82F3197F822
:102988002F31002B03D097F82F3187F82E31D7F845
:102998001C31D3E900230021396103F008037B616E
:1029A800D7E904120B46134311D0D7F81C3128334A
:1029B8000021184601F09CFA034687F82F3197F852
:1029C8002F31002B03D097F82F3187F82E31D7F805
:1029D8001C31D3E900230021B96003F01003FB6028
:1029E800D7E902120B46134311D0D7F81C3128330C
:1029F8000121184601F07CFA034687F82F3197F831
:102A08002F31002B03D097F82F3187F82E31D7F8C4
:102A18001C31D3E900230021396003F020037B60D7
:102A2800D7E900120B46134311D0D7F81C312833CD
:102A38000221184601F05CFA034687F82F3197F80F
:102A48002F31002B03D097F82F3187F82E3197F8C4
:102A58002E31002B01D1002300E00123184607F591
:102A68009877BD46BDE8B08F0044025880B590B055
:102A780000AFC7E90001D7E90023A2F580710B4335
:102A880040F094809E4B1B6D03F007033B633B6B48
:102A9800042B00F2878001A252F823F0B92A10080B
:102AA800E12A1008092B1008A52B1008312B100853
:102AB800934B1B6803F00073B3F1007F08D107F153
:102AC8002403184601F010F8BB6AFB6300F045BD0B
:102AD8000023FB6300F041BD894B1B6803F00063D2
:102AE800B3F1006F08D107F11803184600F054FD40
:102AF800BB69FB6300F031BD0023FB6300F02DBD13
:102B08007F4B1B6803F00053B3F1005F08D107F156
:102B18000C03184600F094FEFB68FB6300F01DBD33
:102B28000023FB6300F019BD754BDB6C03F04053C9
:102B38007B63734B1B6803F00403042B0CD17B6B82
:102B4800002B09D16E4B1B68DB0803F003036D4AA9
:102B580022FA03F3FB631FE0694B1B6803F48073DD
:102B6800B3F5807F06D17B6BB3F1805F02D1664BF2
:102B7800FB6311E0624B1B6803F40033B3F5003FBD
:102B880006D17B6BB3F1005F02D1604BFB6303E0BE
:102B98000023FB6300F0E1BC00F0DFBC5C4BFB638F
:102BA80000F0DBBC0023FB6300F0D7BCD7E90023AF
:102BB800A2F500710B4340F0AD80514B1B6D03F43F
:102BC800E0733B633B6BB3F5807F56D03B6BB3F54B
:102BD800807F00F290803B6BC02B00F088803B6BBD
:102BE800C02B00F288803B6B802B32D03B6B802B54
:102BF80000F281803B6B002B03D03B6B402B14D041
:102C080079E03F4B1B6803F00073B3F1007F08D1F4
:102C180007F12403184600F067FFBB6AFB6300F066
:102C28009CBC0023FB6300F098BC354B1B6803F089
:102C38000063B3F1006F08D107F11803184600F0DC
:102C4800ABFCBB69FB6300F088BC0023FB6300F0AE
:102C580084BC2B4B1B6803F00053B3F1005F08D111
:102C680007F10C03184600F0EBFDFB68FB6300F06E
:102C780074BC0023FB6300F070BC214BDB6C03F0D9
:102C880040537B631E4B1B6803F00403042B0CD1D9
:102C98007B6B002B09D11A4B1B68DB0803F003037D
:102CA800184A22FA03F3FB631FE0154B1B6803F471
:102CB8008073B3F5807F06D17B6BB3F1805F02D15F
:102CC800114BFB6311E00E4B1B6803F40033B3F5A3
:102CD800003F06D17B6BB3F1005F02D10B4BFB6366
:102CE80003E00023FB6300F038BC00F036BC084B5F
:102CF800FB6300F032BC0023FB6300F02EBC00BF76
:102D0800004402580090D00300093D0040787D013E
:102D18000080BB00D7E90023A2F580610B4340F097
:102D28009C809E4B9B6D03F460033B633B6BB3F548
:102D3800000F54D03B6BB3F5000F00F28B803B6B58
:102D4800B3F5C00F00F083803B6BB3F5C00F00F202
:102D580081803B6BB3F5800F2FD03B6BB3F5800FB1
:102D680078D83B6B002B04D03B6BB3F5001F12D017
:102D780070E08A4B1B6803F00073B3F1007F07D142
:102D880007F12403184600F0AFFEBB6AFB63E4E3D7
:102D98000023FB63E1E3814B1B6803F00063B3F19D
:102DA800006F07D107F11803184600F0F5FBBB695F
:102DB800FB63D2E30023FB63CFE3784B1B6803F08C
:102DC8000053B3F1005F07D107F10C03184600F078
:102DD80037FDFB68FB63C0E30023FB63BDE36F4B78
:102DE800DB6C03F040537B636C4B1B6803F00403FC
:102DF800042B0CD17B6B002B09D1684B1B68DB08BB
:102E080003F00303664A22FA03F3FB631EE0634BF5
:102E18001B6803F48073B3F5807F06D17B6BB3F135
:102E2800805F02D15F4BFB6310E05C4B1B6803F4CF
:102E38000033B3F5003F06D17B6BB3F1005F02D1DD
:102E4800594BFB6302E00023FB6386E385E3574BA2
:102E5800FB6382E30023FB637FE3D7E90023A2F54A
:102E680000610B4340F0A7804C4B9B6D03F0E0637F
:102E78003B633B6BB3F1806F55D03B6BB3F1806F15
:102E880000F296803B6BB3F1407F00F084803B6B8F
:102E9800B3F1407F00F28C803B6BB3F1007F30D000
:102EA8003B6BB3F1007F00F283803B6B002B04D0B7
:102EB8003B6BB3F1807F12D07AE0384B1B6803F08C
:102EC8000073B3F1007F07D107F12403184600F01F
:102ED8000BFEBB6AFB6340E30023FB633DE32F4B20
:102EE8001B6803F00063B3F1006F07D107F1180303
:102EF800184600F051FBBB69FB632EE30023FB631C
:102F08002BE3264B1B6803F00053B3F1005F07D196
:102F180007F10C03184600F093FCFB68FB631CE305
:102F28000023FB6319E31D4BDB6C03F040537B6309
:102F38001A4B1B6803F00403042B0CD17B6B002B8A
:102F480009D1164B1B68DB0803F00303144A22FA65
:102F580003F3FB631EE0114B1B6803F48073B3F5A6
:102F6800807F06D17B6BB3F1805F02D10D4BFB6391
:102F780010E00A4B1B6803F40033B3F5003F06D199
:102F88007B6BB3F1005F02D1074BFB6302E00023C8
:102F9800FB63E2E2E1E2054BFB63DEE20044025838
:102FA8000090D00300093D0040787D010080BB00FF
:102FB8000023FB63D1E2D7E90023A2F580510B433C
:102FC80040F09C80934B1B6D03F4E043BB63BB6BE9
:102FD800B3F5804F54D0BB6BB3F5804F00F28B80B4
:102FE800BB6BB3F5405F00F08380BB6BB3F5405F0C
:102FF80000F28180BB6BB3F5005F2FD0BB6BB3F5DC
:10300800005F78D8BB6B002B04D0BB6BB3F5805F37
:1030180012D070E07F4B1B6803F00073B3F1007FA0
:1030280007D107F12403184600F05EFDBB6AFB6375
:1030380093E20023FB6390E2764B1B6803F0006386
:10304800B3F1006F07D107F11803184600F0A4FA8E
:10305800BB69FB6381E20023FB637EE26D4B1B6867
:1030680003F00053B3F1005F07D107F10C031846D2
:1030780000F0E6FBFB68FB636FE20023FB636CE296
:10308800644BDB6C03F040537B63624B1B6803F0BB
:103098000403042B0CD17B6B002B09D15D4B1B68FF
:1030A800DB0803F003035C4A22FA03F3FB631EE028
:1030B800584B1B6803F48073B3F5807F06D17B6B94
:1030C800B3F1805F02D1554BFB6310E0514B1B6895
:1030D80003F40033B3F5003F06D17B6BB3F1005F17
:1030E80002D14F4BFB6302E00023FB6335E234E27D
:1030F8004C4BFB6331E20023FB632EE2D7E900234C
:10310800A2F500510B4340F08F80424B1B6D03F436
:10311800E023BB63BB6BB3F5A02F6BD0BB6BB3F5E0
:10312800A02F74D8BB6BB3F5802F56D0BB6BB3F50B
:10313800802F6CD8BB6BB3F5403F3BD0BB6BB3F56E
:10314800403F64D8BB6BB3F5003F21D0BB6BB3F5F0
:10315800003F5CD8BB6B002B04D0BB6BB3F5803F42
:1031680004D054E0FEF722FAF863F6E1294B1B6815
:1031780003F00063B3F1006F07D107F11803184695
:1031880000F00AFAFB69FB63E7E10023FB63E4E173
:10319800204B1B6803F00053B3F1005F07D107F120
:1031A8000C03184600F04CFB3B69FB63D5E1002398
:1031B800FB63D2E1174B1B6803F00403042B09D10E
:1031C800144B1B68DB0803F00303134A22FA03F3CA
:1031D800FB63C2E10023FB63BFE10E4B1B6803F4F2
:1031E8008073B3F5807F02D10C4BFB63B5E10023FC
:1031F800FB63B2E1074B1B6803F40033B3F5003FF0
:1032080002D1074BFB63A8E10023FB63A5E1002380
:10321800FB63A2E1004402580090D00300093D007E
:1032280040787D010080BB00D7E90023A2F500218A
:103238000B4373D19C4B9B6D03F44033BB63BB6B57
:10324800B3F5003F2FD0BB6BB3F5003F63D8BB6B22
:10325800002B04D0BB6BB3F5803F12D05BE0924BE0
:103268001B6803F00063B3F1006F07D107F118037F
:10327800184600F091F9BB69FB636EE10023FB631C
:103288006BE1894B1B6803F00053B3F1005F07D172
:1032980007F10C03184600F0D3FA7B69FB635CE185
:1032A8000023FB6359E1804BDB6C03F040537B63E5
:1032B8007D4B1B6803F00403042B0CD17B6B002BA4
:1032C80009D1794B1B68DB0803F00303774A22FA1C
:1032D80003F3FB631EE0744B1B6803F48073B3F5C0
:1032E800807F06D17B6BB3F1805F02D1704BFB63AB
:1032F80010E06D4B1B6803F40033B3F5003F06D1B3
:103308007B6BB3F1005F02D16A4BFB6302E00023E1
:10331800FB6322E121E10023FB631EE1D7E90023DF
:10332800A2F580310B4333D15F4BDB6C03F4803360
:10333800BB63BB6B002B04D0BB6BB3F5803F12D0D3
:1033480023E0594B1B6803F00073B3F1007F07D1EA
:1033580007F12403184600F0C7FBBB6AFB63FCE0D7
:103368000023FB63F9E0504B1B6803F00063B3F1E3
:10337800006F07D107F11803184600F00DF93B6AF2
:10338800FB63EAE00023FB63E7E00023FB63E4E080
:10339800D7E90023A2F580410B4340F08D80424BD2
:1033A8009B6D03F0E043BB63BB6BB3F1A04F6BD0E5
:1033B800BB6BB3F1A04F74D8BB6BB3F1804F56D041
:1033C800BB6BB3F1804F6CD8BB6BB3F1405F3BD0A4
:1033D800BB6BB3F1405F64D8BB6BB3F1005F21D026
:1033E800BB6BB3F1005F5CD8BB6B002B04D0BB6B2D
:1033F800B3F1805F04D054E000F0B8F8F863ACE0B3
:10340800294B1B6803F00063B3F1006F07D107F184
:103418001803184600F0C0F8FB69FB639DE0002321
:10342800FB639AE0204B1B6803F00053B3F1005F85
:1034380007D107F10C03184600F002FA3B69FB6359
:103448008BE00023FB6388E0174B1B6803F0040341
:10345800042B09D1144B1B68DB0803F00303134A40
:1034680022FA03F3FB6378E00023FB6375E00E4B5D
:103478001B6803F48073B3F5807F02D10C4BFB63A8
:103488006BE00023FB6368E0074B1B6803F4003321
:10349800B3F5003F02D1074BFB635EE00023FB63FB
:1034A8005BE00023FB6358E0004402580090D0031F
:1034B80000093D0040787D01D7E90023A2F50041CD
:1034C8000B4348D1274B1B6D03F04053BB63BB6BC9
:1034D800B3F1005F2AD0BB6BB3F1005F38D8BB6B88
:1034E800002B04D0BB6BB3F1805F0DD030E01D4BD7
:1034F8001B6803F40033B3F5003F02D11A4BFB639A
:103508002BE00023FB6328E0164B1B6803F00073D5
:10351800B3F1007F07D107F12403184600F0E4FA5D
:10352800BB6AFB6319E00023FB6316E00D4B1B68C5
:1035380003F00063B3F1006F07D107F118031846D1
:1035480000F02AF8FB69FB6307E00023FB6304E053
:103558000023FB6301E00023FB63FB6B1846403745
:10356800BD4680BD0044025840787D0180B500AF5B
:10357800FDF7EAFF0246064B1B6A1B0903F0070327
:103588000449CB5C03F01F0322FA03F3184680BDFD
:10359800004402589064100880B489B000AF786085
:1035A800A14B9B6A03F00303BB619F4B9B6A1B0BF8
:1035B80003F03F037B619C4BDB6A1B0903F00103AB
:1035C8003B61994BDB6BDB08C3F30C033A6902FBE5
:1035D80003F307EE903AF8EE677AC7ED037A7B6952
:1035E800002B00F01181BB69022B00F08380BB69BE
:1035F800022B00F2A180BB69002B03D0BB69012B11
:1036080056D099E0884B1B6803F02003002B2DD07F
:10361800854B1B68DB0803F00303844A22FA03F393
:10362800BB60BB6807EE903AF8EE676A7B6907EE05
:10363800903AF8EE677A86EEA77A7B4B9B6BC3F3DA
:10364800080307EE903AF8EE676A97ED036ADFED34
:10365800785AC6EE257A76EEA77AF7EE006A77EE04
:10366800A67A67EE277AC7ED077A87E07B6907EEC7
:10367800903AF8EE677ADFED6F6A86EEA77A6A4BC2
:103688009B6BC3F3080307EE903AF8EE676A97ED71
:10369800036ADFED675AC6EE257A76EEA77AF7EE6B
:1036A800006A77EEA67A67EE277AC7ED077A65E0B3
:1036B8007B6907EE903AF8EE677ADFED5F6A86EE8F
:1036C800A77A594B9B6BC3F3080307EE903AF8EEC1
:1036D800676A97ED036ADFED565AC6EE257A76EEED
:1036E800A77AF7EE006A77EEA67A67EE277AC7ED33
:1036F800077A43E07B6907EE903AF8EE677ADFEDE8
:103708004F6A86EEA77A484B9B6BC3F3080307EE14
:10371800903AF8EE676A97ED036ADFED455AC6EE10
:10372800257A76EEA77AF7EE006A77EEA67A67EE44
:10373800277AC7ED077A21E07B6907EE903AF8EE21
:10374800677ADFED3D6A86EEA77A374B9B6BC3F34A
:10375800080307EE903AF8EE676A97ED036ADFED23
:10376800345AC6EE257A76EEA77AF7EE006A77EE37
:10377800A67A67EE277AC7ED077A00BF2A4B9B6BBC
:103788005B0A03F07F0307EE903AF8EE677AB7EE2C
:10379800007A37EE877AD7ED076AC6EE877AFCEEAD
:1037A800E77A17EE902A7B681A601F4B9B6B1B0CFD
:1037B80003F07F0307EE903AF8EE677AB7EE007AE7
:1037C80037EE877AD7ED076AC6EE877AFCEEE77A96
:1037D80017EE902A7B685A60134B9B6B1B0E03F005
:1037E8007F0307EE903AF8EE677AB7EE007A37EE85
:1037F800877AD7ED076AC6EE877AFCEEE77A17EE86
:10380800902A7B689A6008E07B6800221A607B68CF
:1038180000225A607B6800229A6000BF2437BD46A8
:103828005DF8047B704700BF004402580090D00345
:10383800000000460024744C0024744A20BCBE4B8F
:1038480080B489B000AF7860A14B9B6A03F0030392
:10385800BB619F4B9B6A1B0D03F03F037B619C4B35
:10386800DB6A1B0A03F001033B61994B5B6CDB08C5
:10387800C3F30C033A6902FB03F307EE903AF8EE40
:10388800677AC7ED037A7B69002B00F01181BB6969
:10389800022B00F08380BB69022B00F2A180BB6978
:1038A800002B03D0BB69012B56D099E0884B1B68CD
:1038B80003F02003002B2DD0854B1B68DB0803F099
:1038C8000303844A22FA03F3BB60BB6807EE903A0D
:1038D800F8EE676A7B6907EE903AF8EE677A86EE4B
:1038E800A77A7B4B1B6CC3F3080307EE903AF8EEFC
:1038F800676A97ED036ADFED785AC6EE257A76EEA9
:10390800A77AF7EE006A77EEA67A67EE277AC7ED10
:10391800077A87E07B6907EE903AF8EE677ADFED81
:103928006F6A86EEA77A6A4B1B6CC3F3080307EE2F
:10393800903AF8EE676A97ED036ADFED675AC6EECC
:10394800257A76EEA77AF7EE006A77EEA67A67EE22
:10395800277AC7ED077A65E07B6907EE903AF8EEBB
:10396800677ADFED5F6A86EEA77A594B1B6CC3F363
:10397800080307EE903AF8EE676A97ED036ADFED01
:10398800565AC6EE257A76EEA77AF7EE006A77EEF3
:10399800A67A67EE277AC7ED077A43E07B6907EED8
:1039A800903AF8EE677ADFED4F6A86EEA77A484BD1
:1039B8001B6CC3F3080307EE903AF8EE676A97EDBD
:1039C800036ADFED455AC6EE257A76EEA77AF7EE5A
:1039D800006A77EEA67A67EE277AC7ED077A21E0C4
:1039E8007B6907EE903AF8EE677ADFED3D6A86EE7E
:1039F800A77A374B1B6CC3F3080307EE903AF8EE2F
:103A0800676A97ED036ADFED345AC6EE257A76EEDB
:103A1800A77AF7EE006A77EEA67A67EE277AC7EDFF
:103A2800077A00BF2A4B1B6C5B0A03F07F0307EE83
:103A3800903AF8EE677AB7EE007A37EE877AD7EDE4
:103A4800076AC6EE877AFCEEE77A17EE902A7B685B
:103A58001A601F4B1B6C1B0C03F07F0307EE903A98
:103A6800F8EE677AB7EE007A37EE877AD7ED076A0D
:103A7800C6EE877AFCEEE77A17EE902A7B685A60E2
:103A8800134B1B6C1B0E03F07F0307EE903AF8EE06
:103A9800677AB7EE007A37EE877AD7ED076AC6EE0F
:103AA800877AFCEEE77A17EE902A7B689A6008E03E
:103AB8007B6800221A607B6800225A607B680022BB
:103AC8009A6000BF2437BD465DF8047B704700BF8D
:103AD800004402580090D003000000460024744CB3
:103AE8000024744A20BCBE4B80B489B000AF786013
:103AF800A04B9B6A03F00303BB619E4B9B6A1B09A7
:103B080003F03F037B619B4BDB6A03F001033B61DE
:103B1800984B5B6BDB08C3F30C033A6902FB03F3B6
:103B280007EE903AF8EE677AC7ED037A7B69002BC7
:103B380000F01181BB69022B00F08380BB69022B66
:103B480000F2A180BB69002B03D0BB69012B56D0C2
:103B580099E0884B1B6803F02003002B2DD0854B80
:103B68001B68DB0803F00303834A22FA03F3BB60F4
:103B7800BB6807EE903AF8EE676A7B6907EE903A01
:103B8800F8EE677A86EEA77A7A4B1B6BC3F30803C5
:103B980007EE903AF8EE676A97ED036ADFED775A19
:103BA800C6EE257A76EEA77AF7EE006A77EEA67A61
:103BB80067EE277AC7ED077A87E07B6907EE903AC8
:103BC800F8EE677ADFED6E6A86EEA77A694B1B6BB3
:103BD800C3F3080307EE903AF8EE676A97ED036AB5
:103BE800DFED665AC6EE257A76EEA77AF7EE006A1A
:103BF80077EEA67A67EE277AC7ED077A65E07B69E4
:103C080007EE903AF8EE677ADFED5E6A86EEA77AFD
:103C1800584B1B6BC3F3080307EE903AF8EE676A3C
:103C280097ED036ADFED555AC6EE257A76EEA77A48
:103C3800F7EE006A77EEA67A67EE277AC7ED077A7D
:103C480043E07B6907EE903AF8EE677ADFED4E6A5B
:103C580086EEA77A474B1B6BC3F3080307EE903A2F
:103C6800F8EE676A97ED036ADFED445AC6EE257AE7
:103C780076EEA77AF7EE006A77EEA67A67EE277AED
:103C8800C7ED077A21E07B6907EE903AF8EE677A8C
:103C9800DFED3B6A86EEA77A364B1B6BC3F308034E
:103CA80007EE903AF8EE676A97ED036ADFED335A4C
:103CB800C6EE257A76EEA77AF7EE006A77EEA67A50
:103CC80067EE277AC7ED077A00BF2A4B1B6B5B0AA2
:103CD80003F07F0307EE903AF8EE677AB7EE007AC2
:103CE80037EE877AD7ED076AC6EE877AFCEEE77A71
:103CF80017EE902A7B681A601E4B1B6B1B0C03F097
:103D08007F0307EE903AF8EE677AB7EE007A37EE5F
:103D1800877AD7ED076AC6EE877AFCEEE77A17EE60
:103D2800902A7B685A60134B1B6B1B0E03F07F03B2
:103D380007EE903AF8EE677AB7EE007A37EE877AB0
:103D4800D7ED076AC6EE877AFCEEE77A17EE902A77
:103D58007B689A6008E07B6800221A607B68002212
:103D68005A607B6800229A6000BF2437BD465DF820
:103D7800047B7047004402580090D00300000046BE
:103D88000024744C0024744A20BCBE4B80B584B017
:103D980000AF786039600023FB73544B9B6A03F0D3
:103DA8000303032B01D101239BE0504B1B684F4AAF
:103DB80023F080631360FCF7C1FEB86008E0FCF7ED
:103DC800BDFE0246BB68D31A022B01D9032388E043
:103DD800464B1B6803F00063002BF0D1434B9B6AF2
:103DE80023F47C327B681B681B03404913438B62B6
:103DF8007B685B68013BC3F308027B689B68013BF7
:103E08005B029BB21A437B68DB68013B1B0403F42B
:103E1800FE031A437B681B69013B1B0603F0FE4344
:103E2800324913438B63314BDB6A23F0C0027B6852
:103E38005B692E491343CB622C4BDB6A23F02002CB
:103E48007B689B6929491343CB62284BDB6A274A65
:103E580023F01003D362254BDB6B23F47F4323F05D
:103E6800F8037A68D269D20020491343CB631F4B09
:103E7800DB6A1E4A43F01003D3623B68002B06D16D
:103E88001A4BDB6A194A43F40023D3620FE03B68FC
:103E9800012B06D1154BDB6A144A43F48013D36215
:103EA80005E0124BDB6A114A43F40013D3620F4B4F
:103EB8001B680E4A43F080631360FCF73FFEB8604E
:103EC80008E0FCF73BFE0246BB68D31A022B01D977
:103ED800032306E0054B1B6803F00063002BF0D0BA
:103EE800FB7B18461037BD4680BD00BF0044025812
:103EF80080B584B000AF786039600023FB73544B01
:103F08009B6A03F00303032B01D101239BE0504B71
:103F18001B684F4A23F080531360FCF70FFEB8600C
:103F280008E0FCF70BFE0246BB68D31A022B01D946
:103F3800032388E0464B1B6803F00053002BF0D1A5
:103F4800434B9B6A23F07C727B681B681B054049C6
:103F580013438B627B685B68013BC3F308027B6891
:103F68009B68013B5B029BB21A437B68DB68013BA1
:103F78001B0403F4FE031A437B681B69013B1B0601
:103F880003F0FE43324913430B64314BDB6A23F4DD
:103F980040627B685B692E491343CB622C4BDB6A1A
:103FA80023F400727B689B6929491343CB62284B31
:103FB800DB6A274A23F48073D362254B5B6C23F4B6
:103FC8007F4323F0F8037A68D269D200204913436B
:103FD8004B641F4BDB6A1E4A43F48073D3623B6811
:103FE800002B06D11A4BDB6A194A43F48003D362CB
:103FF8000FE03B68012B06D1154BDB6A144A43F4EA
:104008000003D36205E0124BDB6A114A43F0807368
:10401800D3620F4B1B680E4A43F080531360FCF7C2
:104028008DFDB86008E0FCF789FD0246BB68D31A2D
:10403800022B01D9032306E0054B1B6803F000534C
:10404800002BF0D0FB7B18461037BD4680BD00BF63
:104058000044025880B58AB000AF78607B68002BB6
:1040680001D1012375E07B6893F83030DBB2002B77
:1040780005D17B6800221A767868FCF72FFA7B68EE
:10408800042283F83020786800F068F80346002B93
:1040980001D001235DE007F108031946786800F0B4
:1040A800B5FD0346002B01D0012352E03B7EDBB275
:1040B8007B627B7EDBB23B627B689B6B012B0AD108
:1040C8007B6A002B02D13B6A002B04D07B684FF43B
:1040D80000729A650BE07B689B6B012B04D17B68AF
:1040E8004FF480729A6502E07B6800229A657B68CB
:1040F800DB681946786800F073FE0346002B01D090
:10410800012326E0FCF71AFDF86111E0FCF716FD23
:104118000246FB69D31AB3F1FF3F09D17B684FF020
:1041280000425A637B68012283F83020032310E0A1
:10413800786800F067FF0346042BE7D17B6800220C
:104148005A637B680022DA627B68012283F8302098
:10415800002318462837BD4680BD000090B58DB0B5
:1041680002AF78600023FB6000233B6100237B6182
:104178000023BB614FF480304FF00001FEF776FC5E
:1041880078627B6A002B09D17B68012283F8302092
:104198007B684FF000625A63012370E07B6A1B0A58
:1041A800394AA2FB03231B09FB617B681C686A462A
:1041B80007F1180393E8030082E8030007F10C03F2
:1041C8000ECB204601F0F8FA7B681B68184601F010
:1041D8003BFBFB69002B05D0FB695B007A6AB2FBED
:1041E800F3F37B627B6A002B07D0284A7B6AB2FB19
:1041F800F3F301331846FCF7ADFC786800F0F0FFE4
:1042080038623B6A002B0BD07B68012283F8302090
:104218007B685A6B3B6A1A437B685A6301232EE01A
:10422800786800F00FFF38623B6A002B0BD07B6880
:10423800012283F830207B685A6B3B6A1A437B68FB
:104248005A6301231BE07B681B684FF40071184612
:1042580001F090FB38623B6A002B0FD07B681B682B
:104268000B4A9A637B685A6B3B6A1A437B685A63AA
:104278007B68012283F83020012300E000231846E0
:104288002C37BD4690BD00BF598B4F01102101004E
:10429800FF0FE01F80B592B000AFF860B9607A6098
:1042A8003B60FCF74BFC38637B68BB63BB687B6394
:1042B800BB68002B07D1FB685B6B43F00062FB68AF
:1042C8005A63012367E1FB6893F83030DBB2012BB6
:1042D80040F05A81FB6800225A63BA6B3B681A4463
:1042E800FB681B6D9A4207D9FB685B6B43F0007251
:1042F800FB685A6301234EE1FB68032283F83020F0
:10430800FB681B680022DA62FB689B6B012B02D0FA
:10431800BB6B5B02BB634FF0FF337B613B685B02A7
:10432800BB619023FB6102233B6200237B62002375
:10433800BB62FB681B6807F114021146184601F0BE
:10434800EDFAFB681B68DA68FB681B6842F04002FC
:10435800DA603B68012B0AD9FB680222DA62FB6843
:104368001B68B96B184601F04BFB786409E0FB68E1
:104378000122DA62FB681B68B96B184601F01DFB65
:1043880078647B6C002B12D0FB681B68844A9A63A4
:10439800FB685A6B7B6C1A43FB685A63FB68012203
:1043A80083F83020FB680022DA620123F3E0BB695E
:1043B800FB6358E0FB681B685B6B03F40043002B4E
:1043C80033D0FB6B1F2B30D900233B6427E0FB68FD
:1043D8001B68184601F01AFAF862FB6ADAB27B6BBE
:1043E8001A707B6B01337B63FB6A1B0ADAB27B6B47
:1043F8001A707B6B01337B63FB6A1B0CDAB27B6B35
:104408001A707B6B01337B63FB6A1B0EDAB27B6B22
:104418001A707B6B01337B633B6C01333B643B6CF1
:10442800072BD4D9FB6B203BFB63FCF787FB0246C9
:104438003B6BD31A3A6D9A4202D93B6D002B12D1CD
:10444800FB681B68564A9A63FB685B6B43F0004243
:10445800FB685A63FB68012283F83020FB6800225E
:10446800DA62032397E0FB681B685B6B03F49573C0
:10447800002B9FD0FB681B68DA68FB681B6822F07A
:104488004002DA60FB681B685B6B03F48073002BE7
:1044980022D03B68012B1FD9FB689B6B032B1BD0D9
:1044A800FB681B68184601F015FB78647B6C002BD1
:1044B80012D0FB681B683A4A9A63FB685A6B7B6C9C
:1044C8001A43FB685A63FB68012283F83020FB68B3
:1044D8000022DA6201235EE0FB681B685B6B03F075
:1044E8000803002B12D0FB681B682D4A9A63FB68EF
:1044F8005B6B43F00802FB685A63FB68012283F890
:104508003020FB680022DA62012344E0FB681B6864
:104518005B6B03F00203002B12D0FB681B68204A78
:104528009A63FB685B6B43F00202FB685A63FB68A3
:10453800012283F83020FB680022DA6201232AE096
:10454800FB681B685B6B03F02003002B12D0FB6831
:104558001B68134A9A63FB685B6B43F02002FB6895
:104568005A63FB68012283F83020FB680022DA6274
:10457800012310E0FB681B680A4A9A63FB68012262
:1045880083F83020002306E0FB685B6B43F00052A1
:10459800FB685A63012318464837BD4680BD00BFF3
:1045A800FF0FE01F3A0F001880B592B000AFF86017
:1045B800B9607A603B60FCF7C1FA38637B68BB631B
:1045C800BB687B63BB68002B07D1FB685B6B43F060
:1045D8000062FB685A6301236BE1FB6893F8303093
:1045E800DBB2012B40F05E81FB6800225A63BA6B94
:1045F8003B681A44FB681B6D9A4207D9FB685B6BE2
:1046080043F00072FB685A63012352E1FB680322FE
:1046180083F83020FB681B680022DA62FB689B6B1A
:10462800012B02D0BB6B5B02BB634FF0FF33BB6156
:104638003B685B02FB6190233B6200237B620023A3
:10464800BB620023FB62FB681B6807F11802114676
:10465800184601F063F9FB681B68DA68FB681B6899
:1046680042F04002DA603B68012B0AD9FB6820223D
:10467800DA62FB681B68B96B184601F007FA7864C0
:1046880009E0FB681022DA62FB681B68B96B184600
:1046980001F0D9F978647B6C002B12D0FB681B6899
:1046A800864A9A63FB685A6B7B6C1A43FB685A63A9
:1046B800FB68012283F83020FB680022DA620123BC
:1046C800F7E0FB69FB635CE0FB681B685B6B03F46A
:1046D8008043002B37D0FB6B1F2B34D900233B645E
:1046E8002BE07B6B1B787B617B6B01337B637B6B84
:1046F8001B781A027B6913437B617B6B01337B63F5
:104708007B6B1B781A047B6913437B617B6B0133DA
:104718007B637B6B1B781A067B6913437B617B6B1E
:1047280001337B63FB681B6807F1140211461846C6
:1047380001F079F83B6C01333B643B6C072BD0D913
:10474800FB6B203BFB63FCF7F9F902463B6BD31A82
:104758003A6D9A4202D93B6D002B12D1FB681B6857
:10476800564A9A63FB685A6B7B6C1A43FB685A6318
:10477800FB68012283F83020FB680022DA620323F9
:1047880097E0FB681B685B6B03F48D73002B9BD071
:10479800FB681B68DA68FB681B6822F04002DA6075
:1047A800FB681B685B6B03F48073002B22D03B68AB
:1047B800012B1FD9FB689B6B032B1BD0FB681B6865
:1047C800184601F087F978647B6C002B12D0FB68DF
:1047D8001B683A4A9A63FB685A6B7B6C1A43FB68FE
:1047E8005A63FB68012283F83020FB680022DA62F2
:1047F80001235EE0FB681B685B6B03F00803002B7A
:1048080012D0FB681B682D4A9A63FB685B6B43F008
:104818000802FB685A63FB68012283F83020FB68B2
:104828000022DA62012344E0FB681B685B6B03F03B
:104838000203002B12D0FB681B68204A9A63FB68AE
:104848005B6B43F00202FB685A63FB68012283F842
:104858003020FB680022DA6201232AE0FB681B682B
:104868005B6B03F01003002B12D0FB681B68134A24
:104878009A63FB685B6B43F01002FB685A63FB6842
:10488800012283F83020FB680022DA62012310E05D
:10489800FB681B680A4A9A63FB68012283F8302088
:1048A800002306E0FB685B6B43F00052FB685A6329
:1048B800012318464837BD4680BD00BFFF0FE01FE3
:1048C8003A0F001880B483B000AF786039607B6815
:1048D800DB6D9B0FDAB23B681A707B68DB6D9B0E51
:1048E800DBB203F00F03DAB23B685A707B68DB6D0A
:1048F8001B0EDBB203F00303DAB23B689A707B68E5
:10490800DB6D1B0CDAB23B68DA707B68DB6D1B0A67
:10491800DAB23B681A717B68DB6DDAB23B685A71B0
:104928007B681B6E1B0D9AB23B68DA807B681B6E36
:104938001B0CDBB203F00F03DAB23B681A727B6818
:104948001B6EDB0BDBB203F00103DAB23B685A7271
:104958007B681B6E9B0BDBB203F00103DAB23B688A
:104968009A727B681B6E5B0BDBB203F00103DAB251
:104978003B68DA727B681B6E1B0BDBB203F001032A
:10498800DAB23B681A733B6800225A737B689B6BE8
:10499800002B63D17B681B6E9A0040F6FC731340B2
:1049A8007A68526E920F1A433B681A617B685B6E95
:1049B800DB0EDBB203F00703DAB23B681A757B68DB
:1049C8005B6E1B0EDBB203F00703DAB23B685A7565
:1049D8007B685B6E5B0DDBB203F00703DAB23B6802
:1049E8009A757B685B6E9B0CDBB203F00703DAB247
:1049F8003B68DA757B685B6EDB0BDBB203F00703A1
:104A0800DAB23B681A763B681B695A1C7B689A6461
:104A18003B681B7EDBB203F007030233012202FA74
:104A280003F37A68926C03FB02F27B689A643B6832
:104A38001B7ADBB203F00F0301229A407B68DA6429
:104A48007B689B6C7A68D26C520A03FB02F27B6823
:104A58001A657B684FF400725A6531E07B689B6B7E
:104A6800012B1DD17B681B6E1B0403F47C127B6831
:104A78005B6E1B0C1A433B681A613B681B69013368
:104A88009A027B689A647B689A6C7B681A657B6873
:104A98004FF40072DA647B68DA6C7B685A650FE061
:104AA8007B681B68584A9A637B685B6B43F080524B
:104AB8007B685A637B68012283F8302001239DE0DC
:104AC8007B685B6E9B0BDBB203F00103DAB23B68D9
:104AD8005A767B685B6EDB09DBB203F07F03DAB2E0
:104AE8003B689A767B685B6EDBB203F07F03DAB2D1
:104AF8003B68DA767B689B6EDB0FDAB23B681A7725
:104B08007B689B6E5B0FDBB203F00303DAB23B6892
:104B18005A777B689B6E9B0EDBB203F00703DAB211
:104B28003B689A777B689B6E9B0DDBB203F00F03A3
:104B3800DAB23B68DA777B689B6E5B0DDBB203F019
:104B48000103DAB23B6883F820203B68002283F82F
:104B580021207B689B6E1B0CDBB203F00103DAB2E9
:104B68003B6883F822207B689B6EDB0BDBB203F08B
:104B78000103DAB23B6883F823207B689B6E9B0BAA
:104B8800DBB203F00103DAB23B6883F824207B68C8
:104B98009B6E5B0BDBB203F00103DAB23B6883F870
:104BA80025207B689B6E1B0BDBB203F00103DAB296
:104BB8003B6883F826207B689B6E9B0ADBB203F078
:104BC8000303DAB23B6883F827207B689B6E1B0AD5
:104BD800DBB203F00303DAB23B6883F828207B6872
:104BE8009B6E5B08DBB203F07F03DAB23B6883F8A5
:104BF80029203B68012283F82A20002318460C3715
:104C0800BD465DF8047B7047FF0FE01F80B594B088
:104C180000AF78603960002387F84F307B6893F8DD
:104C28003030DBB2032B01D10123A7E007F10803E1
:104C38001946786800F062FBB864BB6C002B11D091
:104C48007B681B684F4A9A637B685A6BBB6C1A4334
:104C58007B685A637B68012283F83020012387F838
:104C68004F3070E0BB689B09DBB203F00303DAB294
:104C78003B681A70BB685B09DBB203F00103DAB268
:104C88003B685A70BB681B0A9BB223F0FF039AB2B9
:104C9800BB681B0E9BB213439AB23B685A80FB68F1
:104CA8001A06FB681B0203F47F031A43FB681B0AFE
:104CB80003F47F431A43FB681B0E1A433B685A6090
:104CC8003B69DAB23B681A723B691B0ADAB23B6885
:104CD8005A723B691B0DDBB203F00F03DAB23B6873
:104CE8009A723B691B0C9BB223F0FF039AB27B6953
:104CF8009BB2DBB29BB213439AB23B689A817B6941
:104D08009B0ADBB203F03F03DAB23B689A737B6914
:104D18001B0ADBB203F00303DAB23B68DA737B6980
:104D28001B09DBB203F00F03DAB23B681A747B6924
:104D3800DBB203F00F03DAB23B685A74BB691B0E8F
:104D4800DAB23B689A747B681B684FF400711846A6
:104D580000F010FEB864BB6C002B0DD07B681B689C
:104D6800084A9A637B68BA6C5A637B68012283F8A5
:104D78003020012387F84F3097F84F3018465037C6
:104D8800BD4680BDFF0FE01F80B483B000AF7860E0
:104D980039607B689A6B3B681A607B68DA6B3B68A2
:104DA8005A607B681A6C3B689A607B685A6C3B68EF
:104DB800DA607B689A6C3B681A617B68DA6C3B68DE
:104DC8005A617B681A6D3B689A617B685A6D3B68CB
:104DD800DA61002318460C37BD465DF8047B70473E
:104DE80090B58DB002AF78603960002387F827301E
:104DF8007B68032283F830207B689B6B032B2ED0C3
:104E08003B68B3F5004F06D17B685B6B43F080527B
:104E18007B685A6329E03B68B3F5804F0AD178680C
:104E280000F064FB38627B685A6B3B6A1A437B6804
:104E38005A631AE03B68002B0AD1786800F0A1FB9E
:104E480038627B685A6B3B6A1A437B685A630CE08A
:104E58007B685B6B43F000627B685A6305E07B68A4
:104E68005B6B43F080527B685A637B685B6B002BFB
:104E780007D07B681B685F4A9A63012387F827304D
:104E880096E04FF480304FF00001FDF7EFFDF86138
:104E9800FB69002B00F083807B685B68BB607B68E4
:104EA8009B68FB603B683B617B681B697B617B6837
:104EB8005A69FB695049A1FB03131B0E9A4203D39D
:104EC8007B685B69BB615AE07B689B6DB3F5007FCB
:104ED80003D17B685B69BB6151E07B689B6DB3F56F
:104EE800807F26D17B685B69002B0ED1FB69434A22
:104EF800934206D9FB69404AA2FB03235B0EBB61C0
:104F08003DE07B685B69BB6139E07B685B695B009E
:104F1800FA69B2FBF3F3394A934206D9FB69364A78
:104F2800A2FB03235B0EBB6129E07B685B69BB6165
:104F380025E07B685B69002B0ED1FB69304A934200
:104F480006D9FB692C4AA2FB03231B0EBB6116E0A2
:104F58007B685B69BB6112E07B685B695B00FA692F
:104F6800B2FBF3F3264A934206D9FB69224AA2FB15
:104F780003231B0EBB6102E07B685B69BB617B6836
:104F88001C686A4607F1140393E8030082E80300EB
:104F980007F108030ECB204600F00EFC08E07B6802
:104FA8005B6B43F000627B685A63012387F8273004
:104FB8007B681B684FF40071184600F0DBFC386210
:104FC8003B6A002B0CD07B681B680A4A9A637B6893
:104FD8005A6B3B6A1A437B685A63012387F8273068
:104FE8007B68012283F8302097F8273018462C3741
:104FF800BD4690BDFF0FE01F893BE65580F0FA02E1
:1050080040787D0180B586B000AF78600023FB60F2
:1050180007F10C031946786800F040FA78617B695B
:10502800002B05D07B685A6B7B691A437B685A63EF
:10503800FB685B0A03F00F033B613B6918461837AE
:10504800BD4680BD80B590B000AF786000237B81FD
:10505800FBF774FDF8637B681B68184600F005FCD5
:105068000346002B02D14FF08063B5E07B689B6B51
:10507800032B2ED07B681B68184600F050FEB863DF
:10508800BB6B002B01D0BB6BA6E07B681B680021C3
:10509800184600F030FC02467B68DA667B681B68BD
:1050A8000421184600F027FC02467B681A677B68D3
:1050B8001B680821184600F01EFC02467B685A67E8
:1050C8007B681B680C21184600F015FC02467B68BB
:1050D8009A677B689B6B032B1DD019E07B681B6864
:1050E80007F10A021146184600F058FEB863BB6B78
:1050F800002B01D0BB6B6FE0FBF720FD0246FB6B7A
:10510800D31A41F28732934202D94FF0004363E049
:105118007B89002BE2D07B689B6B032B36D07B8985
:105128001A467B685A647B681A687B685B6C1B0448
:105138001946104600F012FEB863BB6B002B01D075
:10514800BB6B49E07B681B680021184600F0D3FB65
:1051580002467B68DA657B681B680421184600F004
:10516800CAFB02467B681A667B681B6808211846DA
:1051780000F0C1FB02467B685A667B681B680C21FD
:10518800184600F0B8FB02467B689A667B681B6885
:105198000421184600F0AFFB03461A0D7B681A6419
:1051A80007F10C0319467868FFF78CFB0346002BC0
:1051B80002D04FF080530FE07B681A687B685B6C05
:1051C8001B041946104600F0C1FCB863BB6B002BEA
:1051D80001D0BB6B00E0002318464037BD4680BDB8
:1051E80080B586B000AF78600023BB6000237B6188
:1051F80000233B617B681B68184600F0CAFCF86016
:10520800FB68002B01D0FB6872E07B681B681846BE
:1052180000F0DDFCF860FB68B3F1004F0DD17B684E
:105228000022DA637B681B68184600F0B2FCF8605D
:10523800FB68002B04D0FB685AE07B680122DA6324
:105248007B68DB6B012B37D17B681B680021184614
:1052580000F0DDFCF860FB68002B2DD04FF0805388
:1052680046E07B681B680021184600F0D0FCF86017
:10527800FB68002B01D0FB683AE07B681B681E497D
:10528800184600F0E7FCF860FB68002B02D04FF0EE
:1052980080532DE07B681B680021184600F02BFB2B
:1052A80078617B69DB0F012B01D1012300E000232A
:1052B8003B61BB680133BB60BB684FF6FE7293422B
:1052C80002D83B69002BCCD0BB684FF6FE729342E4
:1052D80002D94FF080730BE07B6800229A637B69E8
:1052E80003F08043002B02D07B6801229A630023DD
:1052F80018461837BD4680BD000010C180B58CB077
:1053080000AF78603960FBF719FC78623B68BB62D4
:105318007B681B680021184600F0EDFA034603F08D
:105328000073B3F1007F02D14FF40063B0E07B68F3
:105338001B684021184600F01DFB38623B6A002BB1
:1053480005D07B685A6B7B685A633B6AA0E07B6830
:105358001A687B685B6C1B041946104600F057FC02
:1053680038623B6A002B05D07B685A6B7B685A63AE
:105378003B6A8DE04FF0FF33BB604023FB60602346
:105388003B6102237B610023BB610123FB617B68D6
:105398001B6807F108021146184600F0BFFA7B683F
:1053A8001B68184600F03FFD38623B6A002B2BD083
:1053B8007B685A6B7B685A633B6A69E07B681B6849
:1053C8005B6B03F40043002B13D00023FB620DE05A
:1053D8007B681B68184600F019FA0246BB6A1A6017
:1053E800BB6A0433BB62FB6A0133FB62FB6A072BAF
:1053F800EED9FBF7A3FB02467B6AD31AB3F1FF3F52
:1054080002D14FF0004343E07B681B685B6B03F4F9
:105418009573002BD2D07B681B685B6B03F0080385
:10542800002B01D0082333E07B681B685B6B03F01B
:105438000203002B01D002232AE07B681B685B6B08
:1054480003F02003002B17D0202321E07B681B6882
:10545800184600F0DBF90246BB6A1A60BB6A0433DF
:10546800BB62FBF76BFB02467B6AD31AB3F1FF3FC3
:1054780002D14FF000430BE07B681B685B6B03F4C1
:105488008053002BE2D17B681B68034A9A63002390
:1054980018463037BD4680BD3A0F001880B584B035
:1054A80000AF786039603B68002B02D14FF0006391
:1054B80018E07B681A687B685B6C1B041946104609
:1054C80000F08EFCF860FB68002B01D0FB6809E057
:1054D8007B681B680021184600F00DFA02463B68FD
:1054E8001A60002318461037BD4680BD80B586B0C7
:1054F80000AF78600023FB6000233B617B681B687A
:105508000021184600F0F7F9034603F00073B3F1E1
:10551800007F02D14FF400632FE007F10C03194616
:10552800786800F079F878617B69002B01D07B6995
:1055380023E03B6903F48023002B1CD07B681A68A6
:105548007B685B6C1B041946104600F060FB7861B1
:105558007B69002B01D07B690FE07B681B68022107
:10556800184600F097FB78617B69002B01D07B69B6
:1055780003E0002301E04FF0806318461837BD466A
:1055880080BD80B586B000AF78600023FB60002343
:105598003B617B681B680021184600F0ACF90346A4
:1055A80003F00073B3F1007F02D14FF400632FE0E2
:1055B80007F10C031946786800F02EF878617B69CA
:1055C800002B01D07B6923E03B6903F48033002B77
:1055D8001CD07B681A687B685B6C1B0419461046F4
:1055E80000F015FB78617B69002B01D07B690FE027
:1055F8007B681B680021184600F04CFB78617B69CA
:10560800002B01D07B6903E0002301E04FF08063A9
:1056180018461837BD4680BD80B58EB000AF78609B
:105628003960FBF78BFA386300237B630023BB6088
:105638000023FB603B68FB627B681B6808211846F7
:1056480000F098F9B862BB6A002B01D0BB6AADE0E4
:105658007B681A687B685B6C1B041946104600F06F
:10566800D6FAB862BB6A002B01D0BB6A9EE04FF045
:10567800FF333B6108237B613023BB610223FB615D
:1056880000233B6201237B627B681B6807F11002E1
:105698001146184600F042F97B681B68184600F06E
:1056A8001CFBB862BB6A002B27D0BB6A7EE07B6814
:1056B8001B685B6B03F40023002B13D17B6B002B5F
:1056C80010D17B681B68184600F0A0F80346BB6041
:1056D8007B681B68184600F099F80346FB607B6BF3
:1056E80001337B63FBF72AFA02463B6BD31AB3F10B
:1056F800FF3F02D14FF0004358E07B681B685A6BAC
:1057080040F22A531340002BD1D07B681B685B6B97
:1057180003F00803002B05D07B681B6808229A63F6
:10572800082343E07B681B685B6B03F00203002BD4
:1057380005D07B681B6802229A63022336E07B68E7
:105748001B685B6B03F02003002B05D07B681B688C
:1057580020229A63202329E07B681B68154A9A63F4
:10576800FB681A06FB681B0203F47F031A43FB68F5
:105778001B0A03F47F431A43FB681B0E1A43FB6A98
:105788001A60FB6A0433FB62BB681A06BB681B021B
:1057980003F47F031A43BB681B0A03F47F431A43CD
:1057A800BB681B0E1A43FB6A1A6000231846383779
:1057B800BD4680BD3A0F001884B080B485B000AFF4
:1057C800786007F11C0080E80E000023FB60FA698E
:1057D8003B6A1A437B6A1A43BB6A1A43FB6A134340
:1057E800FA681343FB607B685A68074B1340FA68F2
:1057F8001A437B685A60002318461437BD465DF883
:10580800047B04B0704700BF002CC0FF80B483B095
:1058180000AF78607B68D3F8803018460C37BD46F7
:105828005DF8047B704780B483B000AF786039605E
:105838003B681A687B68C3F88020002318460C3739
:10584800BD465DF8047B704780B483B000AF7860D4
:105858007B681B6843F003027B681A6000231846C4
:105868000C37BD465DF8047B704780B483B000AF49
:1058780078607B681B6803F0030318460C37BD4645
:105888005DF8047B7047000080B485B000AF786095
:1058980039600023FB603B681A687B689A603B6844
:1058A8005A683B689B681A433B68DB681A433B6845
:1058B8001B691343FA681343FB607B68DA68064B7D
:1058C8001340FA681A437B68DA60002318461437D5
:1058D800BD465DF8047B7047C0E0FEFF80B483B02E
:1058E80000AF78607B681B69DBB218460C37BD4691
:1058F8005DF8047B704780B485B000AF786039608C
:105908007B6814331A463B681344FB60FB681B68CA
:1059180018461437BD465DF8047B704780B485B0DF
:1059280000AF786039600023FB603B681A687B68C9
:105938005A623B685A687B689A623B689A683B6817
:10594800DB681A433B681B691A433B685B6913436E
:10595800FA681343FB607B68DB6A23F0FF02FB688D
:105968001A437B68DA62002318461437BD465DF88F
:10597800047B704780B588B000AF786039603B68B9
:10598800BB601023FB604FF480733B6100237B6195
:105998004FF48053BB6107F1080319467868FFF795
:1059A80073FF41F288321021786800F05FFAF861DD
:1059B800FB6918462037BD4680BD80B588B000AF6A
:1059C800786039603B68BB601123FB604FF48073DB
:1059D8003B6100237B614FF48053BB6107F10803EF
:1059E80019467868FFF750FF41F28832112178682C
:1059F80000F03CFAF861FB6918462037BD4680BDC7
:105A080080B588B000AF786039603B68BB6012230E
:105A1800FB604FF480733B6100237B614FF480533C
:105A2800BB6107F1080319467868FFF72DFF41F2BB
:105A380088321221786800F019FAF861FB69184673
:105A48002037BD4680BD80B588B000AF786039602A
:105A58003B68BB601823FB604FF480733B610023F5
:105A68007B614FF48053BB6107F1080319467868DE
:105A7800FFF70AFF41F288321821786800F0F6F93A
:105A8800F861FB6918462037BD4680BD80B588B0EF
:105A980000AF786039603B68BB601923FB604FF446
:105AA80080733B6100237B614FF48053BB6107F136
:105AB800080319467868FFF7E7FE41F28832192192
:105AC800786800F0D3F9F861FB6918462037BD46BD
